{"abi":[{"type":"constructor","inputs":[{"name":"usdc_","type":"address","internalType":"address"},{"name":"owner_","type":"address","internalType":"address"},{"name":"feeRecipient_","type":"address","internalType":"address"}],"stateMutability":"nonpayable"},{"type":"function","name":"MAX_FEE_BPS","inputs":[],"outputs":[{"name":"","type":"uint16","internalType":"uint16"}],"stateMutability":"view"},{"type":"function","name":"MIN_STAKE","inputs":[],"outputs":[{"name":"","type":"uint256","internalType":"uint256"}],"stateMutability":"view"},{"type":"function","name":"acceptOwnership","inputs":[],"outputs":[],"stateMutability":"nonpayable"},{"type":"function","name":"claimWinnings","inputs":[{"name":"epochId","type":"uint64","internalType":"uint64"},{"name":"marketType","type":"uint8","internalType":"enum BaseRankMarketV2.MarketType"}],"outputs":[{"name":"amount","type":"uint256","internalType":"uint256"}],"stateMutability":"nonpayable"},{"type":"function","name":"claimable","inputs":[{"name":"user","type":"address","internalType":"address"},{"name":"epochId","type":"uint64","internalType":"uint64"},{"name":"marketType","type":"uint8","internalType":"enum BaseRankMarketV2.MarketType"}],"outputs":[{"name":"","type":"uint256","internalType":"uint256"}],"stateMutability":"view"},{"type":"function","name":"claimed","inputs":[{"name":"","type":"uint64","internalType":"uint64"},{"name":"","type":"uint8","internalType":"enum BaseRankMarketV2.MarketType"},{"name":"","type":"address","internalType":"address"}],"outputs":[{"name":"","type":"bool","internalType":"bool"}],"stateMutability":"view"},{"type":"function","name":"collectFee","inputs":[{"name":"epochId","type":"uint64","internalType":"uint64"},{"name":"marketType","type":"uint8","internalType":"enum BaseRankMarketV2.MarketType"}],"outputs":[{"name":"feeAmount","type":"uint256","internalType":"uint256"}],"stateMutability":"nonpayable"},{"type":"function","name":"feeCollected","inputs":[{"name":"","type":"uint64","internalType":"uint64"},{"name":"","type":"uint8","internalType":"enum BaseRankMarketV2.MarketType"}],"outputs":[{"name":"","type":"bool","internalType":"bool"}],"stateMutability":"view"},{"type":"function","name":"feeRecipient","inputs":[],"outputs":[{"name":"","type":"address","internalType":"address"}],"stateMutability":"view"},{"type":"function","name":"isWinner","inputs":[{"name":"","type":"uint64","internalType":"uint64"},{"name":"","type":"uint8","internalType":"enum BaseRankMarketV2.MarketType"},{"name":"","type":"bytes32","internalType":"bytes32"}],"outputs":[{"name":"","type":"bool","internalType":"bool"}],"stateMutability":"view"},{"type":"function","name":"lockMarket","inputs":[{"name":"epochId","type":"uint64","internalType":"uint64"},{"name":"marketType","type":"uint8","internalType":"enum BaseRankMarketV2.MarketType"}],"outputs":[],"stateMutability":"nonpayable"},{"type":"function","name":"marketDetails","inputs":[{"name":"epochId","type":"uint64","internalType":"uint64"},{"name":"marketType","type":"uint8","internalType":"enum BaseRankMarketV2.MarketType"}],"outputs":[{"name":"","type":"tuple","internalType":"struct BaseRankMarketV2.Market","components":[{"name":"openTime","type":"uint64","internalType":"uint64"},{"name":"lockTime","type":"uint64","internalType":"uint64"},{"name":"resolveTime","type":"uint64","internalType":"uint64"},{"name":"feeBps","type":"uint16","internalType":"uint16"},{"name":"state","type":"uint8","internalType":"uint8"},{"name":"metadataHash","type":"bytes32","internalType":"bytes32"},{"name":"snapshotHash","type":"bytes32","internalType":"bytes32"},{"name":"totalPool","type":"uint256","internalType":"uint256"},{"name":"totalWinningPool","type":"uint256","internalType":"uint256"}]}],"stateMutability":"view"},{"type":"function","name":"marketState","inputs":[{"name":"epochId","type":"uint64","internalType":"uint64"},{"name":"marketType","type":"uint8","internalType":"enum BaseRankMarketV2.MarketType"}],"outputs":[{"name":"","type":"uint8","internalType":"uint8"}],"stateMutability":"view"},{"type":"function","name":"openMarket","inputs":[{"name":"config","type":"tuple","internalType":"struct BaseRankMarketV2.MarketConfig","components":[{"name":"epochId","type":"uint64","internalType":"uint64"},{"name":"marketType","type":"uint8","internalType":"enum BaseRankMarketV2.MarketType"},{"name":"openTime","type":"uint64","internalType":"uint64"},{"name":"lockTime","type":"uint64","internalType":"uint64"},{"name":"resolveTime","type":"uint64","internalType":"uint64"},{"name":"feeBps","type":"uint16","internalType":"uint16"},{"name":"metadataHash","type":"bytes32","internalType":"bytes32"}]}],"outputs":[],"stateMutability":"nonpayable"},{"type":"function","name":"owner","inputs":[],"outputs":[{"name":"","type":"address","internalType":"address"}],"stateMutability":"view"},{"type":"function","name":"pause","inputs":[],"outputs":[],"stateMutability":"nonpayable"},{"type":"function","name":"paused","inputs":[],"outputs":[{"name":"","type":"bool","internalType":"bool"}],"stateMutability":"view"},{"type":"function","name":"pendingOwner","inputs":[],"outputs":[{"name":"","type":"address","internalType":"address"}],"stateMutability":"view"},{"type":"function","name":"poolByCandidate","inputs":[{"name":"","type":"uint64","internalType":"uint64"},{"name":"","type":"uint8","internalType":"enum BaseRankMarketV2.MarketType"},{"name":"","type":"bytes32","internalType":"bytes32"}],"outputs":[{"name":"","type":"uint256","internalType":"uint256"}],"stateMutability":"view"},{"type":"function","name":"predict","inputs":[{"name":"epochId","type":"uint64","internalType":"uint64"},{"name":"marketType","type":"uint8","internalType":"enum BaseRankMarketV2.MarketType"},{"name":"candidateId","type":"bytes32","internalType":"bytes32"},{"name":"amount","type":"uint256","internalType":"uint256"}],"outputs":[],"stateMutability":"nonpayable"},{"type":"function","name":"predictWithPermit","inputs":[{"name":"epochId","type":"uint64","internalType":"uint64"},{"name":"marketType","type":"uint8","internalType":"enum BaseRankMarketV2.MarketType"},{"name":"candidateId","type":"bytes32","internalType":"bytes32"},{"name":"amount","type":"uint256","internalType":"uint256"},{"name":"permit","type":"tuple","internalType":"struct BaseRankMarketV2.PermitParams","components":[{"name":"value","type":"uint256","internalType":"uint256"},{"name":"deadline","type":"uint256","internalType":"uint256"},{"name":"v","type":"uint8","internalType":"uint8"},{"name":"r","type":"bytes32","internalType":"bytes32"},{"name":"s","type":"bytes32","internalType":"bytes32"}]}],"outputs":[],"stateMutability":"nonpayable"},{"type":"function","name":"renounceOwnership","inputs":[],"outputs":[],"stateMutability":"nonpayable"},{"type":"function","name":"resolveMarket","inputs":[{"name":"epochId","type":"uint64","internalType":"uint64"},{"name":"marketType","type":"uint8","internalType":"enum BaseRankMarketV2.MarketType"},{"name":"winnerIds","type":"bytes32[]","internalType":"bytes32[]"},{"name":"snapshotHash","type":"bytes32","internalType":"bytes32"}],"outputs":[],"stateMutability":"nonpayable"},{"type":"function","name":"setFeeRecipient","inputs":[{"name":"newFeeRecipient","type":"address","internalType":"address"}],"outputs":[],"stateMutability":"nonpayable"},{"type":"function","name":"transferOwnership","inputs":[{"name":"newOwner","type":"address","internalType":"address"}],"outputs":[],"stateMutability":"nonpayable"},{"type":"function","name":"unpause","inputs":[],"outputs":[],"stateMutability":"nonpayable"},{"type":"function","name":"usdc","inputs":[],"outputs":[{"name":"","type":"address","internalType":"contract IERC20"}],"stateMutability":"view"},{"type":"function","name":"userStakeByCandidate","inputs":[{"name":"","type":"uint64","internalType":"uint64"},{"name":"","type":"uint8","internalType":"enum BaseRankMarketV2.MarketType"},{"name":"","type":"address","internalType":"address"},{"name":"","type":"bytes32","internalType":"bytes32"}],"outputs":[{"name":"","type":"uint256","internalType":"uint256"}],"stateMutability":"view"},{"type":"function","name":"userTotalStake","inputs":[{"name":"","type":"uint64","internalType":"uint64"},{"name":"","type":"uint8","internalType":"enum BaseRankMarketV2.MarketType"},{"name":"","type":"address","internalType":"address"}],"outputs":[{"name":"","type":"uint256","internalType":"uint256"}],"stateMutability":"view"},{"type":"function","name":"winnerList","inputs":[{"name":"","type":"uint64","internalType":"uint64"},{"name":"","type":"uint8","internalType":"enum BaseRankMarketV2.MarketType"},{"name":"","type":"uint256","internalType":"uint256"}],"outputs":[{"name":"","type":"bytes32","internalType":"bytes32"}],"stateMutability":"view"},{"type":"event","name":"FeeCollected","inputs":[{"name":"epochId","type":"uint64","indexed":true,"internalType":"uint64"},{"name":"marketType","type":"uint8","indexed":true,"internalType":"enum BaseRankMarketV2.MarketType"},{"name":"feeAmount","type":"uint256","indexed":false,"internalType":"uint256"},{"name":"recipient","type":"address","indexed":true,"internalType":"address"}],"anonymous":false},{"type":"event","name":"FeeRecipientUpdated","inputs":[{"name":"newRecipient","type":"address","indexed":true,"internalType":"address"}],"anonymous":false},{"type":"event","name":"MarketLocked","inputs":[{"name":"epochId","type":"uint64","indexed":true,"internalType":"uint64"},{"name":"marketType","type":"uint8","indexed":true,"internalType":"enum BaseRankMarketV2.MarketType"}],"anonymous":false},{"type":"event","name":"MarketOpened","inputs":[{"name":"epochId","type":"uint64","indexed":true,"internalType":"uint64"},{"name":"marketType","type":"uint8","indexed":true,"internalType":"enum BaseRankMarketV2.MarketType"},{"name":"lockTime","type":"uint64","indexed":false,"internalType":"uint64"},{"name":"resolveTime","type":"uint64","indexed":false,"internalType":"uint64"}],"anonymous":false},{"type":"event","name":"MarketResolved","inputs":[{"name":"epochId","type":"uint64","indexed":true,"internalType":"uint64"},{"name":"marketType","type":"uint8","indexed":true,"internalType":"enum BaseRankMarketV2.MarketType"},{"name":"winners","type":"bytes32[]","indexed":false,"internalType":"bytes32[]"},{"name":"snapshotHash","type":"bytes32","indexed":false,"internalType":"bytes32"}],"anonymous":false},{"type":"event","name":"OwnershipTransferStarted","inputs":[{"name":"previousOwner","type":"address","indexed":true,"internalType":"address"},{"name":"newOwner","type":"address","indexed":true,"internalType":"address"}],"anonymous":false},{"type":"event","name":"OwnershipTransferred","inputs":[{"name":"previousOwner","type":"address","indexed":true,"internalType":"address"},{"name":"newOwner","type":"address","indexed":true,"internalType":"address"}],"anonymous":false},{"type":"event","name":"Paused","inputs":[{"name":"account","type":"address","indexed":false,"internalType":"address"}],"anonymous":false},{"type":"event","name":"Predicted","inputs":[{"name":"epochId","type":"uint64","indexed":true,"internalType":"uint64"},{"name":"marketType","type":"uint8","indexed":true,"internalType":"enum BaseRankMarketV2.MarketType"},{"name":"user","type":"address","indexed":true,"internalType":"address"},{"name":"candidateId","type":"bytes32","indexed":false,"internalType":"bytes32"},{"name":"amount","type":"uint256","indexed":false,"internalType":"uint256"}],"anonymous":false},{"type":"event","name":"Unpaused","inputs":[{"name":"account","type":"address","indexed":false,"internalType":"address"}],"anonymous":false},{"type":"event","name":"WinningsClaimed","inputs":[{"name":"epochId","type":"uint64","indexed":true,"internalType":"uint64"},{"name":"marketType","type":"uint8","indexed":true,"internalType":"enum BaseRankMarketV2.MarketType"},{"name":"user","type":"address","indexed":true,"internalType":"address"},{"name":"amount","type":"uint256","indexed":false,"internalType":"uint256"}],"anonymous":false},{"type":"error","name":"AlreadyClaimed","inputs":[]},{"type":"error","name":"DuplicateWinner","inputs":[]},{"type":"error","name":"EnforcedPause","inputs":[]},{"type":"error","name":"ExpectedPause","inputs":[]},{"type":"error","name":"FeeAlreadyCollected","inputs":[]},{"type":"error","name":"InvalidAddress","inputs":[]},{"type":"error","name":"InvalidAmount","inputs":[]},{"type":"error","name":"InvalidCandidate","inputs":[]},{"type":"error","name":"InvalidConfig","inputs":[]},{"type":"error","name":"InvalidState","inputs":[]},{"type":"error","name":"InvalidTime","inputs":[]},{"type":"error","name":"NoWinners","inputs":[]},{"type":"error","name":"OwnableInvalidOwner","inputs":[{"name":"owner","type":"address","internalType":"address"}]},{"type":"error","name":"OwnableUnauthorizedAccount","inputs":[{"name":"account","type":"address","internalType":"address"}]},{"type":"error","name":"PermitValueTooLow","inputs":[]},{"type":"error","name":"ReentrancyGuardReentrantCall","inputs":[]},{"type":"error","name":"SafeERC20FailedOperation","inputs":[{"name":"token","type":"address","internalType":"address"}]}],"bytecode":{"object":"0x60a060405234801562000010575f80fd5b506040516200257038038062002570833981016040819052620000339162000196565b816001600160a01b0381166200006257604051631e4fbdf760e01b81525f600482015260240160405180910390fd5b6200006d816200010d565b5060017f9b779b17422d0df92223018b32b4d1fa46e071723d6817e2486d003becc55f00556001600160a01b0383161580620000b057506001600160a01b038216155b80620000c357506001600160a01b038116155b15620000e25760405163e6c4247b60e01b815260040160405180910390fd5b6001600160a01b03928316608052600280546001600160a01b031916919093161790915550620001dd565b600180546001600160a01b031916905562000128816200012b565b50565b5f80546001600160a01b038381166001600160a01b0319831681178455604051919092169283917f8be0079c531659141344cd1fd0a4f28419497f9722a3daafe3b4186f6b6457e09190a35050565b80516001600160a01b038116811462000191575f80fd5b919050565b5f805f60608486031215620001a9575f80fd5b620001b4846200017a565b9250620001c4602085016200017a565b9150620001d4604085016200017a565b90509250925092565b60805161235e620002125f395f81816102420152818161060801528181610f1e0152818161126801526119c0015261235e5ff3fe608060405234801561000f575f80fd5b50600436106101d1575f3560e01c8063ae9ea93a116100fe578063e30c39781161009e578063f30a3ed11161006e578063f30a3ed1146104b6578063f4b04f3a146104c9578063fdeb634e146104dc578063ffa91eb2146104ef575f80fd5b8063e30c397814610452578063e74b981b14610463578063e808355a14610476578063f2fde38b146104a3575f80fd5b8063cfe8a156116100d9578063cfe8a156146103e0578063d2bdba1b14610410578063d55be8c614610423578063d741b3341461043f575f80fd5b8063ae9ea93a146103b1578063cb1c2b5c146103c4578063cc014e88146103cd575f80fd5b806378bdc9bd11610174578063843ea96111610144578063843ea961146103465780638456cb59146103665780638da5cb5b1461036e5780638fbcd5b41461037e575f80fd5b806378bdc9bd146102bf57806379ba5097146102f25780637e878243146102fa57806380bdec4f1461030d575f80fd5b80633f4ba83a116101af5780633f4ba83a1461027c57806346904840146102865780635c975abb14610299578063715018a6146102b7575f80fd5b8063180cc01f146101d5578063218b106d146102185780633e413bee1461023d575b5f80fd5b6102056101e3366004611eb1565b600660209081525f938452604080852082529284528284209052825290205481565b6040519081526020015b60405180910390f35b61022b610226366004611ef1565b610502565b60405160ff909116815260200161020f565b6102647f000000000000000000000000000000000000000000000000000000000000000081565b6040516001600160a01b03909116815260200161020f565b610284610560565b005b600254610264906001600160a01b031681565b600154600160a01b900460ff165b604051901515815260200161020f565b610284610572565b6102a76102cd366004611eb1565b600960209081525f938452604080852082529284528284209052825290205460ff1681565b610284610583565b610284610308366004611f22565b6105cc565b61020561031b366004611f81565b600560209081525f948552604080862082529385528385208152918452828420909152825290205481565b610359610354366004611ef1565b6106f6565b60405161020f9190611fc9565b610284610812565b5f546001600160a01b0316610264565b6102a761038c366004612053565b600860209081525f938452604080852082529284528284209052825290205460ff1681565b6102846103bf36600461208c565b610822565b61020561271081565b6102056103db3660046120cb565b61085b565b6102056103ee366004612053565b600460209081525f938452604080852082529284528284209052825290205481565b61020561041e366004612053565b61094b565b61042c6101f481565b60405161ffff909116815260200161020f565b61028461044d366004612102565b610981565b6001546001600160a01b0316610264565b610284610471366004612118565b610caa565b6102a7610484366004611ef1565b600a60209081525f928352604080842090915290825290205460ff1681565b6102846104b1366004612118565b610d22565b6102056104c4366004611ef1565b610d92565b6102846104d7366004611ef1565b610fb2565b6102056104ea366004611ef1565b6110c1565b6102846104fd366004612131565b61130a565b6001600160401b0382165f9081526003602052604081208183600181111561052c5761052c6121c1565b600181111561053d5761053d6121c1565b815260208101919091526040015f2054600160d01b900460ff1690505b92915050565b610568611650565b61057061167c565b565b61057a611650565b6105705f6116d1565b60015433906001600160a01b031681146105c05760405163118cdaa760e01b81526001600160a01b03821660048201526024015b60405180910390fd5b6105c9816116d1565b50565b6105d46116ea565b6105dc611705565b80358211156105fe5760405163033f188160e61b815260040160405180910390fd5b6001600160a01b037f00000000000000000000000000000000000000000000000000000000000000001663d505accf33308435602086013561064660608801604089016121d5565b6040516001600160e01b031960e088901b1681526001600160a01b0395861660048201529490931660248501526044840191909152606483015260ff166084820152606084013560a4820152608084013560c482015260e4015f604051808303815f87803b1580156106b6575f80fd5b505af11580156106c8573d5f803e3d5ffd5b505050506106d98585858533611730565b6106ef60015f8051602061230983398151915255565b5050505050565b60408051610120810182525f8082526020808301829052828401829052606083018290526080830182905260a0830182905260c0830182905260e0830182905261010083018290526001600160401b0386168252600390529182209091836001811115610765576107656121c1565b6001811115610776576107766121c1565b815260208082019290925260409081015f2081516101208101835281546001600160401b038082168352600160401b8204811695830195909552600160801b810490941692810192909252600160c01b830461ffff166060830152600160d01b90920460ff166080820152600182015460a0820152600282015460c0820152600382015460e08201526004909101546101008201529392505050565b61081a611650565b610570611a50565b61082a6116ea565b610832611705565b61083f8484848433611730565b61085560015f8051602061230983398151915255565b50505050565b6001600160401b0382165f908152600360205260408120819081846001811115610887576108876121c1565b6001811115610898576108986121c1565b815260208101919091526040015f20805490915060ff600160d01b90910416600314158061092657506001600160401b0384165f908152600960205260408120908460018111156108eb576108eb6121c1565b60018111156108fc576108fc6121c1565b815260208082019290925260409081015f9081206001600160a01b038916825290925290205460ff165b15610934575f915050610944565b61094085858584611a93565b9150505b9392505050565b6007602052825f5260405f20602052815f5260405f20818154811061096e575f80fd5b905f5260205f20015f9250925050505481565b610989611650565b6101f461099c60c0830160a084016121f5565b61ffff1611156109bf576040516306b7c75960e31b815260040160405180910390fd5b6109cf6080820160608301612216565b6001600160401b03166109e86060830160408401612216565b6001600160401b0316108015610a2d5750610a0960a0820160808301612216565b6001600160401b0316610a226080830160608401612216565b6001600160401b0316105b610a4a576040516306b7c75960e31b815260040160405180910390fd5b42610a5b6060830160408401612216565b6001600160401b03161015610a83576040516337bf561360e11b815260040160405180910390fd5b5f600381610a946020850185612216565b6001600160401b03166001600160401b031681526020019081526020015f205f836020016020810190610ac7919061222f565b6001811115610ad857610ad86121c1565b6001811115610ae957610ae96121c1565b815260208101919091526040015f208054909150600160d01b900460ff1615610b255760405163baf3f0f760e01b815260040160405180910390fd5b610b356060830160408401612216565b815467ffffffffffffffff19166001600160401b0391909116178155610b616080830160608401612216565b81546001600160401b0391909116600160401b026fffffffffffffffff000000000000000019909116178155610b9d60a0830160808401612216565b81546001600160401b0391909116600160801b0267ffffffffffffffff60801b19909116178155610bd460c0830160a084016121f5565b8154600160d01b62ffffff60c01b1990911661ffff92909216600160c01b0260ff60d01b19169190911717815560c08201356001820155610c1b604083016020840161222f565b6001811115610c2c57610c2c6121c1565b610c396020840184612216565b6001600160401b03167ffe69b43894edabddca8a8478e7ec23b4d15f3e9708888a0e0dc3b3c32dab198a610c736080860160608701612216565b610c8360a0870160808801612216565b604080516001600160401b0393841681529290911660208301520160405180910390a35050565b610cb2611650565b6001600160a01b038116610cd95760405163e6c4247b60e01b815260040160405180910390fd5b600280546001600160a01b0319166001600160a01b0383169081179091556040517f7a7b5a0a132f9e0581eb8527f66eae9ee89c2a3e79d4ac7e41a1f1f4d48a7fc2905f90a250565b610d2a611650565b600180546001600160a01b0383166001600160a01b03199091168117909155610d5a5f546001600160a01b031690565b6001600160a01b03167f38d16b8cac22d99fc7c124b9cd0de2d3fa1faef420bfe791d8c362d765e2270060405160405180910390a350565b5f610d9b6116ea565b610da3611705565b6001600160401b0383165f90815260036020526040812081846001811115610dcd57610dcd6121c1565b6001811115610dde57610dde6121c1565b815260208101919091526040015f20805490915060ff600160d01b90910416600314610e1d5760405163baf3f0f760e01b815260040160405180910390fd5b6001600160401b0384165f90815260096020526040812090846001811115610e4757610e476121c1565b6001811115610e5857610e586121c1565b815260208082019290925260409081015f90812033825290925290205460ff1615610e9657604051630c8d9eab60e31b815260040160405180910390fd5b6001600160401b0384165f9081526009602052604081206001918583811115610ec157610ec16121c1565b6001811115610ed257610ed26121c1565b815260208082019290925260409081015f90812033808352935220805460ff191692151592909217909155610f0990858584611a93565b91508115610f4557610f456001600160a01b037f0000000000000000000000000000000000000000000000000000000000000000163384611c8b565b33836001811115610f5857610f586121c1565b856001600160401b03167f21ad8e7cece258fef20855bcd6eb5e86129747cc6c63d3e9c8c02e886310e8be85604051610f9391815260200190565b60405180910390a45061055a60015f8051602061230983398151915255565b610fba611650565b6001600160401b0382165f90815260036020526040812081836001811115610fe457610fe46121c1565b6001811115610ff557610ff56121c1565b815260208101919091526040015f20805490915060ff600160d01b909104166001146110345760405163baf3f0f760e01b815260040160405180910390fd5b8054600160401b90046001600160401b03164210156110665760405163baf3f0f760e01b815260040160405180910390fd5b805460ff60d01b1916600160d11b178155816001811115611089576110896121c1565b6040516001600160401b038516907f5ee3f6f627236047cd03daa931b71ba8d091e465f5cf917baf669461e1ef1184905f90a3505050565b5f6110ca611650565b6110d26116ea565b6001600160401b0383165f908152600360205260408120818460018111156110fc576110fc6121c1565b600181111561110d5761110d6121c1565b815260208101919091526040015f20805490915060ff600160d01b9091041660031461114c5760405163baf3f0f760e01b815260040160405180910390fd5b6001600160401b0384165f908152600a6020526040812090846001811115611176576111766121c1565b6001811115611187576111876121c1565b815260208101919091526040015f205460ff16156111b85760405163f2519cb960e01b815260040160405180910390fd5b6001600160401b0384165f908152600a6020526040812060019185838111156111e3576111e36121c1565b60018111156111f4576111f46121c1565b815260208101919091526040015f20805460ff19169115159190911790556004810154801561124d57815460038301546127109161123e91600160c01b90910461ffff169061225c565b6112489190612273565b61124f565b5f5b9250821561129157600254611291906001600160a01b037f00000000000000000000000000000000000000000000000000000000000000008116911685611c8b565b6002546001600160a01b03168460018111156112af576112af6121c1565b866001600160401b03167f45a9bf43daa97fdb039c214d13ac1b9db5add1f0a298c9c61b663ce14e1e1cff866040516112ea91815260200190565b60405180910390a4505061055a60015f8051602061230983398151915255565b611312611650565b6001600160401b0385165f9081526003602052604081208186600181111561133c5761133c6121c1565b600181111561134d5761134d6121c1565b815260208101919091526040015f20805490915060ff600160d01b9091041660021461138c5760405163baf3f0f760e01b815260040160405180910390fd5b8054600160801b90046001600160401b03164210156113be5760405163baf3f0f760e01b815260040160405180910390fd5b5f8390036113df57604051633728feb360e01b815260040160405180910390fd5b5f805b848110156115d0575f8686838181106113fd576113fd612292565b602002919091013591508190506114275760405163e66ea08f60e01b815260040160405180910390fd5b6001600160401b0389165f90815260086020526040812090896001811115611451576114516121c1565b6001811115611462576114626121c1565b815260208082019290925260409081015f90812084825290925290205460ff16156114a0576040516305a1e9cd60e11b815260040160405180910390fd5b6001600160401b0389165f9081526008602052604081206001918a838111156114cb576114cb6121c1565b60018111156114dc576114dc6121c1565b815260208082019290925260409081015f9081208582528352818120805460ff1916941515949094179093556001600160401b038c168352600790915281209089600181111561152e5761152e6121c1565b600181111561153f5761153f6121c1565b815260208082019290925260409081015f908120805460018181018355918352848320018590556001600160401b038d1682526004909352908120918a9081111561158c5761158c6121c1565b600181111561159d5761159d6121c1565b81526020019081526020015f205f8281526020019081526020015f2054836115c591906122a6565b9250506001016113e2565b50815460ff60d01b1916600360d01b1782556002820183905560048201819055856001811115611602576116026121c1565b876001600160401b03167fa67f81a1da4023692c41121888d679213633aa96d5a3cc90f7395de2b2eff68c87878760405161163f939291906122b9565b60405180910390a350505050505050565b5f546001600160a01b031633146105705760405163118cdaa760e01b81523360048201526024016105b7565b611684611cc5565b6001805460ff60a01b191690557f5db9ee0a495bf2e6ff9c91a7834c1ba4fdd244a5e8aa4e537bd38aeae4b073aa335b6040516001600160a01b03909116815260200160405180910390a1565b600180546001600160a01b03191690556105c981611cef565b6116f2611d3e565b60025f8051602061230983398151915255565b600154600160a01b900460ff16156105705760405163d93c066560e01b815260040160405180910390fd5b6127108210156117535760405163162908e360e11b815260040160405180910390fd5b826117715760405163e66ea08f60e01b815260040160405180910390fd5b6001600160401b0385165f9081526003602052604081208186600181111561179b5761179b6121c1565b60018111156117ac576117ac6121c1565b815260208101919091526040015f20805490915060ff600160d01b909104166001146117eb5760405163baf3f0f760e01b815260040160405180910390fd5b80546001600160401b031642108061181457508054600160401b90046001600160401b03164210155b156118325760405163baf3f0f760e01b815260040160405180910390fd5b6001600160401b0386165f908152600560205260408120849187600181111561185d5761185d6121c1565b600181111561186e5761186e6121c1565b815260208082019290925260409081015f9081206001600160a01b03871682528352818120888252909252812080549091906118ab9084906122a6565b90915550506001600160401b0386165f90815260066020526040812084918760018111156118db576118db6121c1565b60018111156118ec576118ec6121c1565b81526020019081526020015f205f846001600160a01b03166001600160a01b031681526020019081526020015f205f82825461192891906122a6565b90915550506001600160401b0386165f9081526004602052604081208491876001811115611958576119586121c1565b6001811115611969576119696121c1565b81526020019081526020015f205f8681526020019081526020015f205f82825461199391906122a6565b9250508190555082816003015f8282546119ad91906122a6565b909155506119e890506001600160a01b037f000000000000000000000000000000000000000000000000000000000000000016833086611d6d565b816001600160a01b0316856001811115611a0457611a046121c1565b60408051878152602081018790526001600160401b038a16917f1c6b4a5ce930ee93d9456c68f1139238d04936108b1c23e650a12a696e8dc747910160405180910390a4505050505050565b611a58611705565b6001805460ff60a01b1916600160a01b1790557f62e78cea01bee320cd4e420270b5ea74000d11b0c9f74754ebdbfc544b05a2586116b43390565b60048101545f90808203611b13576001600160401b0385165f90815260066020526040812090856001811115611acb57611acb6121c1565b6001811115611adc57611adc6121c1565b81526020019081526020015f205f876001600160a01b03166001600160a01b031681526020019081526020015f2054915050611c83565b6001600160401b0385165f908152600760205260408120819081876001811115611b3f57611b3f6121c1565b6001811115611b5057611b506121c1565b81526020019081526020015f2090505f5b8154811015611c12576001600160401b0388165f90815260056020526040812090886001811115611b9457611b946121c1565b6001811115611ba557611ba56121c1565b81526020019081526020015f205f8a6001600160a01b03166001600160a01b031681526020019081526020015f205f838381548110611be657611be6612292565b905f5260205f20015481526020019081526020015f205483611c0891906122a6565b9250600101611b61565b50815f03611c25575f9350505050611c83565b845460038601545f9161271091611c4791600160c01b900461ffff169061225c565b611c519190612273565b90505f818760030154611c6491906122f5565b905084611c71858361225c565b611c7b9190612273565b955050505050505b949350505050565b611c988383836001611da3565b611cc057604051635274afe760e01b81526001600160a01b03841660048201526024016105b7565b505050565b600154600160a01b900460ff1661057057604051638dfc202b60e01b815260040160405180910390fd5b5f80546001600160a01b038381166001600160a01b0319831681178455604051919092169283917f8be0079c531659141344cd1fd0a4f28419497f9722a3daafe3b4186f6b6457e09190a35050565b5f805160206123098339815191525460020361057057604051633ee5aeb560e01b815260040160405180910390fd5b611d7b848484846001611e05565b61085557604051635274afe760e01b81526001600160a01b03851660048201526024016105b7565b60405163a9059cbb60e01b5f8181526001600160a01b038616600452602485905291602083604481808b5af1925060015f51148316611df9578383151615611ded573d5f823e3d81fd5b5f873b113d1516831692505b60405250949350505050565b6040516323b872dd60e01b5f8181526001600160a01b038781166004528616602452604485905291602083606481808c5af1925060015f51148316611e61578383151615611e55573d5f823e3d81fd5b5f883b113d1516831692505b604052505f60605295945050505050565b80356001600160401b0381168114611e88575f80fd5b919050565b803560028110611e88575f80fd5b80356001600160a01b0381168114611e88575f80fd5b5f805f60608486031215611ec3575f80fd5b611ecc84611e72565b9250611eda60208501611e8d565b9150611ee860408501611e9b565b90509250925092565b5f8060408385031215611f02575f80fd5b611f0b83611e72565b9150611f1960208401611e8d565b90509250929050565b5f805f805f858703610120811215611f38575f80fd5b611f4187611e72565b9550611f4f60208801611e8d565b9450604087013593506060870135925060a0607f1982011215611f70575f80fd5b506080860190509295509295909350565b5f805f8060808587031215611f94575f80fd5b611f9d85611e72565b9350611fab60208601611e8d565b9250611fb960408601611e9b565b9396929550929360600135925050565b81516001600160401b0390811682526020808401518216908301526040808401519182169083015261012082019050606083015161200d606084018261ffff169052565b506080830151612022608084018260ff169052565b5060a083015160a083015260c083015160c083015260e083015160e083015261010080840151818401525092915050565b5f805f60608486031215612065575f80fd5b61206e84611e72565b925061207c60208501611e8d565b9150604084013590509250925092565b5f805f806080858703121561209f575f80fd5b6120a885611e72565b93506120b660208601611e8d565b93969395505050506040820135916060013590565b5f805f606084860312156120dd575f80fd5b6120e684611e9b565b92506120f460208501611e72565b9150611ee860408501611e8d565b5f60e08284031215612112575f80fd5b50919050565b5f60208284031215612128575f80fd5b61094482611e9b565b5f805f805f60808688031215612145575f80fd5b61214e86611e72565b945061215c60208701611e8d565b935060408601356001600160401b0380821115612177575f80fd5b818801915088601f83011261218a575f80fd5b813581811115612198575f80fd5b8960208260051b85010111156121ac575f80fd5b96999598505060200195606001359392505050565b634e487b7160e01b5f52602160045260245ffd5b5f602082840312156121e5575f80fd5b813560ff81168114610944575f80fd5b5f60208284031215612205575f80fd5b813561ffff81168114610944575f80fd5b5f60208284031215612226575f80fd5b61094482611e72565b5f6020828403121561223f575f80fd5b61094482611e8d565b634e487b7160e01b5f52601160045260245ffd5b808202811582820484141761055a5761055a612248565b5f8261228d57634e487b7160e01b5f52601260045260245ffd5b500490565b634e487b7160e01b5f52603260045260245ffd5b8082018082111561055a5761055a612248565b604080825281018390525f6001600160fb1b038411156122d7575f80fd5b8360051b808660608501376020830193909352500160600192915050565b8181038181111561055a5761055a61224856fe9b779b17422d0df92223018b32b4d1fa46e071723d6817e2486d003becc55f00a26469706673582212208e2387da2036c002d477b0820a00a61d967f773cb4852d9399098e7f012c9b7e64736f6c63430008180033","linkReferences":{}},"methodIdentifiers":{"MAX_FEE_BPS()":"d55be8c6","MIN_STAKE()":"cb1c2b5c","acceptOwnership()":"79ba5097","claimWinnings(uint64,uint8)":"f30a3ed1","claimable(address,uint64,uint8)":"cc014e88","claimed(uint64,uint8,address)":"78bdc9bd","collectFee(uint64,uint8)":"fdeb634e","feeCollected(uint64,uint8)":"e808355a","feeRecipient()":"46904840","isWinner(uint64,uint8,bytes32)":"8fbcd5b4","lockMarket(uint64,uint8)":"f4b04f3a","marketDetails(uint64,uint8)":"843ea961","marketState(uint64,uint8)":"218b106d","openMarket((uint64,uint8,uint64,uint64,uint64,uint16,bytes32))":"d741b334","owner()":"8da5cb5b","pause()":"8456cb59","paused()":"5c975abb","pendingOwner()":"e30c3978","poolByCandidate(uint64,uint8,bytes32)":"cfe8a156","predict(uint64,uint8,bytes32,uint256)":"ae9ea93a","predictWithPermit(uint64,uint8,bytes32,uint256,(uint256,uint256,uint8,bytes32,bytes32))":"7e878243","renounceOwnership()":"715018a6","resolveMarket(uint64,uint8,bytes32[],bytes32)":"ffa91eb2","setFeeRecipient(address)":"e74b981b","transferOwnership(address)":"f2fde38b","unpause()":"3f4ba83a","usdc()":"3e413bee","userStakeByCandidate(uint64,uint8,address,bytes32)":"80bdec4f","userTotalStake(uint64,uint8,address)":"180cc01f","winnerList(uint64,uint8,uint256)":"d2bdba1b"},"id":53}