{"abi":[{"type":"constructor","inputs":[{"name":"usdc_","type":"address","internalType":"address"},{"name":"owner_","type":"address","internalType":"address"},{"name":"feeRecipient_","type":"address","internalType":"address"}],"stateMutability":"nonpayable"},{"type":"function","name":"MAX_CANDIDATES","inputs":[],"outputs":[{"name":"","type":"uint256","internalType":"uint256"}],"stateMutability":"view"},{"type":"function","name":"MAX_FEE_BPS","inputs":[],"outputs":[{"name":"","type":"uint16","internalType":"uint16"}],"stateMutability":"view"},{"type":"function","name":"MIN_CANDIDATES","inputs":[],"outputs":[{"name":"","type":"uint256","internalType":"uint256"}],"stateMutability":"view"},{"type":"function","name":"MIN_STAKE","inputs":[],"outputs":[{"name":"","type":"uint256","internalType":"uint256"}],"stateMutability":"view"},{"type":"function","name":"acceptOwnership","inputs":[],"outputs":[],"stateMutability":"nonpayable"},{"type":"function","name":"candidateList","inputs":[{"name":"","type":"uint64","internalType":"uint64"},{"name":"","type":"uint8","internalType":"enum IBaseRankMarket.MarketType"},{"name":"","type":"uint256","internalType":"uint256"}],"outputs":[{"name":"","type":"bytes32","internalType":"bytes32"}],"stateMutability":"view"},{"type":"function","name":"claimWinnings","inputs":[{"name":"epochId","type":"uint64","internalType":"uint64"},{"name":"marketType","type":"uint8","internalType":"enum IBaseRankMarket.MarketType"}],"outputs":[{"name":"amount","type":"uint256","internalType":"uint256"}],"stateMutability":"nonpayable"},{"type":"function","name":"claimable","inputs":[{"name":"user","type":"address","internalType":"address"},{"name":"epochId","type":"uint64","internalType":"uint64"},{"name":"marketType","type":"uint8","internalType":"enum IBaseRankMarket.MarketType"}],"outputs":[{"name":"amount","type":"uint256","internalType":"uint256"}],"stateMutability":"view"},{"type":"function","name":"claimed","inputs":[{"name":"","type":"uint64","internalType":"uint64"},{"name":"","type":"uint8","internalType":"enum IBaseRankMarket.MarketType"},{"name":"","type":"address","internalType":"address"}],"outputs":[{"name":"","type":"bool","internalType":"bool"}],"stateMutability":"view"},{"type":"function","name":"collectFee","inputs":[{"name":"epochId","type":"uint64","internalType":"uint64"},{"name":"marketType","type":"uint8","internalType":"enum IBaseRankMarket.MarketType"}],"outputs":[{"name":"feeAmount","type":"uint256","internalType":"uint256"}],"stateMutability":"nonpayable"},{"type":"function","name":"feeCollected","inputs":[{"name":"","type":"uint64","internalType":"uint64"},{"name":"","type":"uint8","internalType":"enum IBaseRankMarket.MarketType"}],"outputs":[{"name":"","type":"bool","internalType":"bool"}],"stateMutability":"view"},{"type":"function","name":"feeRecipient","inputs":[],"outputs":[{"name":"","type":"address","internalType":"address"}],"stateMutability":"view"},{"type":"function","name":"isCandidate","inputs":[{"name":"","type":"uint64","internalType":"uint64"},{"name":"","type":"uint8","internalType":"enum IBaseRankMarket.MarketType"},{"name":"","type":"bytes32","internalType":"bytes32"}],"outputs":[{"name":"","type":"bool","internalType":"bool"}],"stateMutability":"view"},{"type":"function","name":"isWinner","inputs":[{"name":"","type":"uint64","internalType":"uint64"},{"name":"","type":"uint8","internalType":"enum IBaseRankMarket.MarketType"},{"name":"","type":"bytes32","internalType":"bytes32"}],"outputs":[{"name":"","type":"bool","internalType":"bool"}],"stateMutability":"view"},{"type":"function","name":"lockMarket","inputs":[{"name":"epochId","type":"uint64","internalType":"uint64"},{"name":"marketType","type":"uint8","internalType":"enum IBaseRankMarket.MarketType"}],"outputs":[],"stateMutability":"nonpayable"},{"type":"function","name":"marketDetails","inputs":[{"name":"epochId","type":"uint64","internalType":"uint64"},{"name":"marketType","type":"uint8","internalType":"enum IBaseRankMarket.MarketType"}],"outputs":[{"name":"","type":"tuple","internalType":"struct BaseRankMarket.Market","components":[{"name":"openTime","type":"uint64","internalType":"uint64"},{"name":"lockTime","type":"uint64","internalType":"uint64"},{"name":"resolveTime","type":"uint64","internalType":"uint64"},{"name":"feeBps","type":"uint16","internalType":"uint16"},{"name":"state","type":"uint8","internalType":"uint8"},{"name":"isRefund","type":"bool","internalType":"bool"},{"name":"metadataHash","type":"bytes32","internalType":"bytes32"},{"name":"snapshotHash","type":"bytes32","internalType":"bytes32"},{"name":"totalPool","type":"uint256","internalType":"uint256"},{"name":"totalWinningPool","type":"uint256","internalType":"uint256"}]}],"stateMutability":"view"},{"type":"function","name":"marketState","inputs":[{"name":"epochId","type":"uint64","internalType":"uint64"},{"name":"marketType","type":"uint8","internalType":"enum IBaseRankMarket.MarketType"}],"outputs":[{"name":"","type":"uint8","internalType":"uint8"}],"stateMutability":"view"},{"type":"function","name":"openMarket","inputs":[{"name":"config","type":"tuple","internalType":"struct IBaseRankMarket.MarketConfig","components":[{"name":"epochId","type":"uint64","internalType":"uint64"},{"name":"marketType","type":"uint8","internalType":"enum IBaseRankMarket.MarketType"},{"name":"openTime","type":"uint64","internalType":"uint64"},{"name":"lockTime","type":"uint64","internalType":"uint64"},{"name":"resolveTime","type":"uint64","internalType":"uint64"},{"name":"feeBps","type":"uint16","internalType":"uint16"},{"name":"candidateIds","type":"bytes32[]","internalType":"bytes32[]"},{"name":"metadataHash","type":"bytes32","internalType":"bytes32"}]}],"outputs":[],"stateMutability":"nonpayable"},{"type":"function","name":"owner","inputs":[],"outputs":[{"name":"","type":"address","internalType":"address"}],"stateMutability":"view"},{"type":"function","name":"pause","inputs":[],"outputs":[],"stateMutability":"nonpayable"},{"type":"function","name":"paused","inputs":[],"outputs":[{"name":"","type":"bool","internalType":"bool"}],"stateMutability":"view"},{"type":"function","name":"pendingOwner","inputs":[],"outputs":[{"name":"","type":"address","internalType":"address"}],"stateMutability":"view"},{"type":"function","name":"poolByCandidate","inputs":[{"name":"","type":"uint64","internalType":"uint64"},{"name":"","type":"uint8","internalType":"enum IBaseRankMarket.MarketType"},{"name":"","type":"bytes32","internalType":"bytes32"}],"outputs":[{"name":"","type":"uint256","internalType":"uint256"}],"stateMutability":"view"},{"type":"function","name":"predict","inputs":[{"name":"epochId","type":"uint64","internalType":"uint64"},{"name":"marketType","type":"uint8","internalType":"enum IBaseRankMarket.MarketType"},{"name":"candidateId","type":"bytes32","internalType":"bytes32"},{"name":"amount","type":"uint256","internalType":"uint256"}],"outputs":[],"stateMutability":"nonpayable"},{"type":"function","name":"predictWithPermit","inputs":[{"name":"epochId","type":"uint64","internalType":"uint64"},{"name":"marketType","type":"uint8","internalType":"enum IBaseRankMarket.MarketType"},{"name":"candidateId","type":"bytes32","internalType":"bytes32"},{"name":"amount","type":"uint256","internalType":"uint256"},{"name":"permit","type":"tuple","internalType":"struct IBaseRankMarket.PermitParams","components":[{"name":"value","type":"uint256","internalType":"uint256"},{"name":"deadline","type":"uint256","internalType":"uint256"},{"name":"v","type":"uint8","internalType":"uint8"},{"name":"r","type":"bytes32","internalType":"bytes32"},{"name":"s","type":"bytes32","internalType":"bytes32"}]}],"outputs":[],"stateMutability":"nonpayable"},{"type":"function","name":"renounceOwnership","inputs":[],"outputs":[],"stateMutability":"nonpayable"},{"type":"function","name":"resolveMarket","inputs":[{"name":"epochId","type":"uint64","internalType":"uint64"},{"name":"marketType","type":"uint8","internalType":"enum IBaseRankMarket.MarketType"},{"name":"winnerIds","type":"bytes32[]","internalType":"bytes32[]"},{"name":"snapshotHash","type":"bytes32","internalType":"bytes32"}],"outputs":[],"stateMutability":"nonpayable"},{"type":"function","name":"setFeeRecipient","inputs":[{"name":"newFeeRecipient","type":"address","internalType":"address"}],"outputs":[],"stateMutability":"nonpayable"},{"type":"function","name":"transferOwnership","inputs":[{"name":"newOwner","type":"address","internalType":"address"}],"outputs":[],"stateMutability":"nonpayable"},{"type":"function","name":"unpause","inputs":[],"outputs":[],"stateMutability":"nonpayable"},{"type":"function","name":"usdc","inputs":[],"outputs":[{"name":"","type":"address","internalType":"contract IERC20"}],"stateMutability":"view"},{"type":"function","name":"userStakeByCandidate","inputs":[{"name":"","type":"uint64","internalType":"uint64"},{"name":"","type":"uint8","internalType":"enum IBaseRankMarket.MarketType"},{"name":"","type":"address","internalType":"address"},{"name":"","type":"bytes32","internalType":"bytes32"}],"outputs":[{"name":"","type":"uint256","internalType":"uint256"}],"stateMutability":"view"},{"type":"function","name":"userTotalStake","inputs":[{"name":"","type":"uint64","internalType":"uint64"},{"name":"","type":"uint8","internalType":"enum IBaseRankMarket.MarketType"},{"name":"","type":"address","internalType":"address"}],"outputs":[{"name":"","type":"uint256","internalType":"uint256"}],"stateMutability":"view"},{"type":"function","name":"winnerList","inputs":[{"name":"","type":"uint64","internalType":"uint64"},{"name":"","type":"uint8","internalType":"enum IBaseRankMarket.MarketType"},{"name":"","type":"uint256","internalType":"uint256"}],"outputs":[{"name":"","type":"bytes32","internalType":"bytes32"}],"stateMutability":"view"},{"type":"event","name":"FeeCollected","inputs":[{"name":"epochId","type":"uint64","indexed":true,"internalType":"uint64"},{"name":"marketType","type":"uint8","indexed":true,"internalType":"enum IBaseRankMarket.MarketType"},{"name":"feeAmount","type":"uint256","indexed":false,"internalType":"uint256"},{"name":"recipient","type":"address","indexed":true,"internalType":"address"}],"anonymous":false},{"type":"event","name":"FeeRecipientUpdated","inputs":[{"name":"newRecipient","type":"address","indexed":true,"internalType":"address"}],"anonymous":false},{"type":"event","name":"MarketLocked","inputs":[{"name":"epochId","type":"uint64","indexed":true,"internalType":"uint64"},{"name":"marketType","type":"uint8","indexed":true,"internalType":"enum IBaseRankMarket.MarketType"}],"anonymous":false},{"type":"event","name":"MarketOpened","inputs":[{"name":"epochId","type":"uint64","indexed":true,"internalType":"uint64"},{"name":"marketType","type":"uint8","indexed":true,"internalType":"enum IBaseRankMarket.MarketType"},{"name":"lockTime","type":"uint64","indexed":false,"internalType":"uint64"},{"name":"resolveTime","type":"uint64","indexed":false,"internalType":"uint64"}],"anonymous":false},{"type":"event","name":"MarketResolved","inputs":[{"name":"epochId","type":"uint64","indexed":true,"internalType":"uint64"},{"name":"marketType","type":"uint8","indexed":true,"internalType":"enum IBaseRankMarket.MarketType"},{"name":"winners","type":"bytes32[]","indexed":false,"internalType":"bytes32[]"},{"name":"snapshotHash","type":"bytes32","indexed":false,"internalType":"bytes32"}],"anonymous":false},{"type":"event","name":"OwnershipTransferStarted","inputs":[{"name":"previousOwner","type":"address","indexed":true,"internalType":"address"},{"name":"newOwner","type":"address","indexed":true,"internalType":"address"}],"anonymous":false},{"type":"event","name":"OwnershipTransferred","inputs":[{"name":"previousOwner","type":"address","indexed":true,"internalType":"address"},{"name":"newOwner","type":"address","indexed":true,"internalType":"address"}],"anonymous":false},{"type":"event","name":"Paused","inputs":[{"name":"account","type":"address","indexed":false,"internalType":"address"}],"anonymous":false},{"type":"event","name":"Predicted","inputs":[{"name":"epochId","type":"uint64","indexed":true,"internalType":"uint64"},{"name":"marketType","type":"uint8","indexed":true,"internalType":"enum IBaseRankMarket.MarketType"},{"name":"user","type":"address","indexed":true,"internalType":"address"},{"name":"candidateId","type":"bytes32","indexed":false,"internalType":"bytes32"},{"name":"amount","type":"uint256","indexed":false,"internalType":"uint256"}],"anonymous":false},{"type":"event","name":"Unpaused","inputs":[{"name":"account","type":"address","indexed":false,"internalType":"address"}],"anonymous":false},{"type":"event","name":"WinningsClaimed","inputs":[{"name":"epochId","type":"uint64","indexed":true,"internalType":"uint64"},{"name":"marketType","type":"uint8","indexed":true,"internalType":"enum IBaseRankMarket.MarketType"},{"name":"user","type":"address","indexed":true,"internalType":"address"},{"name":"amount","type":"uint256","indexed":false,"internalType":"uint256"}],"anonymous":false},{"type":"error","name":"AlreadyClaimed","inputs":[]},{"type":"error","name":"DuplicateCandidate","inputs":[]},{"type":"error","name":"DuplicateWinner","inputs":[]},{"type":"error","name":"EnforcedPause","inputs":[]},{"type":"error","name":"ExpectedPause","inputs":[]},{"type":"error","name":"FeeAlreadyCollected","inputs":[]},{"type":"error","name":"InvalidAddress","inputs":[]},{"type":"error","name":"InvalidAmount","inputs":[]},{"type":"error","name":"InvalidCandidate","inputs":[]},{"type":"error","name":"InvalidConfig","inputs":[]},{"type":"error","name":"InvalidState","inputs":[]},{"type":"error","name":"InvalidTime","inputs":[]},{"type":"error","name":"NoWinners","inputs":[]},{"type":"error","name":"OwnableInvalidOwner","inputs":[{"name":"owner","type":"address","internalType":"address"}]},{"type":"error","name":"OwnableUnauthorizedAccount","inputs":[{"name":"account","type":"address","internalType":"address"}]},{"type":"error","name":"PermitValueTooLow","inputs":[]},{"type":"error","name":"ReentrancyGuardReentrantCall","inputs":[]},{"type":"error","name":"SafeERC20FailedOperation","inputs":[{"name":"token","type":"address","internalType":"address"}]}],"bytecode":{"object":"0x60a060405234801562000010575f80fd5b5060405162002a3438038062002a34833981016040819052620000339162000196565b816001600160a01b0381166200006257604051631e4fbdf760e01b81525f600482015260240160405180910390fd5b6200006d816200010d565b5060017f9b779b17422d0df92223018b32b4d1fa46e071723d6817e2486d003becc55f00556001600160a01b0383161580620000b057506001600160a01b038216155b80620000c357506001600160a01b038116155b15620000e25760405163e6c4247b60e01b815260040160405180910390fd5b6001600160a01b03928316608052600280546001600160a01b031916919093161790915550620001dd565b600180546001600160a01b031916905562000128816200012b565b50565b5f80546001600160a01b038381166001600160a01b0319831681178455604051919092169283917f8be0079c531659141344cd1fd0a4f28419497f9722a3daafe3b4186f6b6457e09190a35050565b80516001600160a01b038116811462000191575f80fd5b919050565b5f805f60608486031215620001a9575f80fd5b620001b4846200017a565b9250620001c4602085016200017a565b9150620001d4604085016200017a565b90509250925092565b608051612822620002125f395f818161026e01528181610c6401528181611290015281816115e00152611de101526128225ff3fe608060405234801561000f575f80fd5b50600436106101fd575f3560e01c80639d9eab8811610114578063e74b981b116100a9578063f2fde38b11610079578063f2fde38b14610525578063f30a3ed114610538578063f4b04f3a1461054b578063fdeb634e1461055e578063ffa91eb214610571575f80fd5b8063e74b981b146104ca578063e808355a146104dd578063ec9639ee1461050a578063f07860961461051d575f80fd5b8063cfe8a156116100e4578063cfe8a1561461045a578063d2bdba1b1461048a578063d55be8c61461049d578063e30c3978146104b9575f80fd5b80639d9eab8814610423578063ae9ea93a1461042b578063cb1c2b5c1461043e578063cc014e8814610447575f80fd5b8063715018a61161019557806380bdec4f1161016557806380bdec4f1461037f578063843ea961146103b85780638456cb59146103d85780638da5cb5b146103e05780638fbcd5b4146103f0575f80fd5b8063715018a61461032957806378bdc9bd1461033157806379ba5097146103645780637e8782431461036c575f80fd5b806346904840116101d057806346904840146102b25780635c975abb146102c557806369e1eb09146102e35780636bdb340d14610316575f80fd5b8063180cc01f14610201578063218b106d146102445780633e413bee146102695780633f4ba83a146102a8575b5f80fd5b61023161020f3660046122d9565b600860209081525f938452604080852082529284528284209052825290205481565b6040519081526020015b60405180910390f35b610257610252366004612319565b610584565b60405160ff909116815260200161023b565b6102907f000000000000000000000000000000000000000000000000000000000000000081565b6040516001600160a01b03909116815260200161023b565b6102b06105e2565b005b600254610290906001600160a01b031681565b600154600160a01b900460ff165b604051901515815260200161023b565b6102d36102f136600461234a565b600460209081525f938452604080852082529284528284209052825290205460ff1681565b6102b0610324366004612383565b6105f4565b6102b0610bce565b6102d361033f3660046122d9565b600b60209081525f938452604080852082529284528284209052825290205460ff1681565b6102b0610bdf565b6102b061037a3660046123ba565b610c28565b61023161038d366004612419565b600760209081525f948552604080862082529385528385208152918452828420909152825290205481565b6103cb6103c6366004612319565b610d52565b60405161023b9190612461565b6102b0610e8a565b5f546001600160a01b0316610290565b6102d36103fe36600461234a565b600a60209081525f938452604080852082529284528284209052825290205460ff1681565b610231600f81565b6102b061043936600461251a565b610e9a565b61023161271081565b610231610455366004612559565b610ed3565b61023161046836600461234a565b600660209081525f938452604080852082529284528284209052825290205481565b61023161049836600461234a565b610fc3565b6104a66101f481565b60405161ffff909116815260200161023b565b6001546001600160a01b0316610290565b6102b06104d8366004612590565b610ff9565b6102d36104eb366004612319565b600c60209081525f928352604080842090915290825290205460ff1681565b61023161051836600461234a565b611071565b610231603281565b6102b0610533366004612590565b611094565b610231610546366004612319565b611104565b6102b0610559366004612319565b611324565b61023161056c366004612319565b611433565b6102b061057f3660046125a9565b611662565b6001600160401b0382165f908152600360205260408120818360018111156105ae576105ae612639565b60018111156105bf576105bf612639565b815260208101919091526040015f2054600160d01b900460ff1690505b92915050565b6105ea611a17565b6105f2611a43565b565b6105fc611a17565b6101f461060f60c0830160a0840161264d565b61ffff161115610632576040516306b7c75960e31b815260040160405180910390fd5b600f61064160c083018361266e565b9050108061065d5750603261065960c083018361266e565b9050115b1561067b576040516306b7c75960e31b815260040160405180910390fd5b61068b60808201606083016126ba565b6001600160401b03166106a460608301604084016126ba565b6001600160401b03161080156106e957506106c560a08201608083016126ba565b6001600160401b03166106de60808301606084016126ba565b6001600160401b0316105b610706576040516306b7c75960e31b815260040160405180910390fd5b4261071760608301604084016126ba565b6001600160401b0316101561073f576040516337bf561360e11b815260040160405180910390fd5b4261075060808301606084016126ba565b6001600160401b031611610777576040516337bf561360e11b815260040160405180910390fd5b5f60038161078860208501856126ba565b6001600160401b03166001600160401b031681526020019081526020015f205f8360200160208101906107bb91906126d3565b60018111156107cc576107cc612639565b60018111156107dd576107dd612639565b815260208101919091526040015f208054909150600160d01b900460ff16156108195760405163baf3f0f760e01b815260040160405180910390fd5b61082960608301604084016126ba565b815467ffffffffffffffff19166001600160401b039190911617815561085560808301606084016126ba565b81546001600160401b0391909116600160401b026fffffffffffffffff00000000000000001990911617815561089160a08301608084016126ba565b81546001600160401b0391909116600160801b0267ffffffffffffffff60801b199091161781556108c860c0830160a0840161264d565b8154600160d01b62ffffff60c01b1990911661ffff92909216600160c01b0260ff60d01b19169190911717815560e082013560018201555f61090d60c084018461266e565b905090505f5b81811015610b2d575f61092960c086018661266e565b83818110610939576109396126ec565b602002919091013591508190506109635760405163e66ea08f60e01b815260040160405180910390fd5b60045f61097360208801886126ba565b6001600160401b03166001600160401b031681526020019081526020015f205f8660200160208101906109a691906126d3565b60018111156109b7576109b7612639565b60018111156109c8576109c8612639565b815260208082019290925260409081015f90812084825290925290205460ff1615610a0657604051638c2bd5a760e01b815260040160405180910390fd5b600160045f610a1860208901896126ba565b6001600160401b03166001600160401b031681526020019081526020015f205f876020016020810190610a4b91906126d3565b6001811115610a5c57610a5c612639565b6001811115610a6d57610a6d612639565b815260208082019290925260409081015f9081208582528352908120805460ff19169315159390931790925560059190610aa9908801886126ba565b6001600160401b03166001600160401b031681526020019081526020015f205f866020016020810190610adc91906126d3565b6001811115610aed57610aed612639565b6001811115610afe57610afe612639565b81526020808201929092526040015f908120805460018181018355918352929091209091019190915501610913565b50610b3e60408401602085016126d3565b6001811115610b4f57610b4f612639565b610b5c60208501856126ba565b6001600160401b03167ffe69b43894edabddca8a8478e7ec23b4d15f3e9708888a0e0dc3b3c32dab198a610b9660808701606088016126ba565b610ba660a08801608089016126ba565b604080516001600160401b0393841681529290911660208301520160405180910390a3505050565b610bd6611a17565b6105f25f611a98565b60015433906001600160a01b03168114610c1c5760405163118cdaa760e01b81526001600160a01b03821660048201526024015b60405180910390fd5b610c2581611a98565b50565b610c30611ab1565b610c38611acc565b8035821115610c5a5760405163033f188160e61b815260040160405180910390fd5b6001600160a01b037f00000000000000000000000000000000000000000000000000000000000000001663d505accf333084356020860135610ca26060880160408901612700565b6040516001600160e01b031960e088901b1681526001600160a01b0395861660048201529490931660248501526044840191909152606483015260ff166084820152606084013560a4820152608084013560c482015260e4015f604051808303815f87803b158015610d12575f80fd5b505af1158015610d24573d5f803e3d5ffd5b50505050610d358585858533611af7565b610d4b60015f805160206127cd83398151915255565b5050505050565b60408051610140810182525f8082526020808301829052828401829052606083018290526080830182905260a0830182905260c0830182905260e08301829052610100830182905261012083018290526001600160401b0386168252600390529182209091836001811115610dc957610dc9612639565b6001811115610dda57610dda612639565b815260208082019290925260409081015f2081516101408101835281546001600160401b038082168352600160401b8204811695830195909552600160801b81049094169281019290925261ffff600160c01b840416606083015260ff600160d01b840481166080840152600160d81b909304909216151560a0820152600182015460c0820152600282015460e08201526003820154610100820152600490910154610120820152905092915050565b610e92611a17565b6105f2611e71565b610ea2611ab1565b610eaa611acc565b610eb78484848433611af7565b610ecd60015f805160206127cd83398151915255565b50505050565b6001600160401b0382165f908152600360205260408120819081846001811115610eff57610eff612639565b6001811115610f1057610f10612639565b815260208101919091526040015f20805490915060ff600160d01b909104166003141580610f9e57506001600160401b0384165f908152600b6020526040812090846001811115610f6357610f63612639565b6001811115610f7457610f74612639565b815260208082019290925260409081015f9081206001600160a01b038916825290925290205460ff165b15610fac575f915050610fbc565b610fb885858584611eb4565b9150505b9392505050565b6009602052825f5260405f20602052815f5260405f208181548110610fe6575f80fd5b905f5260205f20015f9250925050505481565b611001611a17565b6001600160a01b0381166110285760405163e6c4247b60e01b815260040160405180910390fd5b600280546001600160a01b0319166001600160a01b0383169081179091556040517f7a7b5a0a132f9e0581eb8527f66eae9ee89c2a3e79d4ac7e41a1f1f4d48a7fc2905f90a250565b6005602052825f5260405f20602052815f5260405f208181548110610fe6575f80fd5b61109c611a17565b600180546001600160a01b0383166001600160a01b031990911681179091556110cc5f546001600160a01b031690565b6001600160a01b03167f38d16b8cac22d99fc7c124b9cd0de2d3fa1faef420bfe791d8c362d765e2270060405160405180910390a350565b5f61110d611ab1565b611115611acc565b6001600160401b0383165f9081526003602052604081208184600181111561113f5761113f612639565b600181111561115057611150612639565b815260208101919091526040015f20805490915060ff600160d01b9091041660031461118f5760405163baf3f0f760e01b815260040160405180910390fd5b6001600160401b0384165f908152600b60205260408120908460018111156111b9576111b9612639565b60018111156111ca576111ca612639565b815260208082019290925260409081015f90812033825290925290205460ff161561120857604051630c8d9eab60e31b815260040160405180910390fd5b6001600160401b0384165f908152600b60205260408120600191858381111561123357611233612639565b600181111561124457611244612639565b815260208082019290925260409081015f90812033808352935220805460ff19169215159290921790915561127b90858584611eb4565b915081156112b7576112b76001600160a01b037f00000000000000000000000000000000000000000000000000000000000000001633846120b3565b338360018111156112ca576112ca612639565b856001600160401b03167f21ad8e7cece258fef20855bcd6eb5e86129747cc6c63d3e9c8c02e886310e8be8560405161130591815260200190565b60405180910390a4506105dc60015f805160206127cd83398151915255565b61132c611a17565b6001600160401b0382165f9081526003602052604081208183600181111561135657611356612639565b600181111561136757611367612639565b815260208101919091526040015f20805490915060ff600160d01b909104166001146113a65760405163baf3f0f760e01b815260040160405180910390fd5b8054600160401b90046001600160401b03164210156113d85760405163baf3f0f760e01b815260040160405180910390fd5b805460ff60d01b1916600160d11b1781558160018111156113fb576113fb612639565b6040516001600160401b038516907f5ee3f6f627236047cd03daa931b71ba8d091e465f5cf917baf669461e1ef1184905f90a3505050565b5f61143c611a17565b611444611ab1565b6001600160401b0383165f9081526003602052604081208184600181111561146e5761146e612639565b600181111561147f5761147f612639565b815260208101919091526040015f20805490915060ff600160d01b909104166003146114be5760405163baf3f0f760e01b815260040160405180910390fd5b6001600160401b0384165f908152600c60205260408120908460018111156114e8576114e8612639565b60018111156114f9576114f9612639565b815260208101919091526040015f205460ff161561152a5760405163f2519cb960e01b815260040160405180910390fd5b6001600160401b0384165f908152600c60205260408120600191858381111561155557611555612639565b600181111561156657611566612639565b815260208101919091526040015f20805460ff1916911515919091179055805460ff600160d81b909104166115c55780546003820154612710916115b691600160c01b90910461ffff1690612734565b6115c0919061274b565b6115c7565b5f5b9150811561160957600254611609906001600160a01b037f000000000000000000000000000000000000000000000000000000000000000081169116846120b3565b6002546001600160a01b031683600181111561162757611627612639565b856001600160401b03167f45a9bf43daa97fdb039c214d13ac1b9db5add1f0a298c9c61b663ce14e1e1cff8560405161130591815260200190565b61166a611a17565b6001600160401b0385165f9081526003602052604081208186600181111561169457611694612639565b60018111156116a5576116a5612639565b815260208101919091526040015f20805490915060ff600160d01b909104166002146116e45760405163baf3f0f760e01b815260040160405180910390fd5b8054600160801b90046001600160401b03164210156117165760405163baf3f0f760e01b815260040160405180910390fd5b5f83900361173757604051633728feb360e01b815260040160405180910390fd5b5f805b8481101561198b575f868683818110611755576117556126ec565b90506020020135905060045f8a6001600160401b03166001600160401b031681526020019081526020015f205f89600181111561179457611794612639565b60018111156117a5576117a5612639565b815260208082019290925260409081015f90812084825290925290205460ff166117e25760405163e66ea08f60e01b815260040160405180910390fd5b6001600160401b0389165f908152600a602052604081209089600181111561180c5761180c612639565b600181111561181d5761181d612639565b815260208082019290925260409081015f90812084825290925290205460ff161561185b576040516305a1e9cd60e11b815260040160405180910390fd5b6001600160401b0389165f908152600a602052604081206001918a8381111561188657611886612639565b600181111561189757611897612639565b815260208082019290925260409081015f9081208582528352818120805460ff1916941515949094179093556001600160401b038c16835260099091528120908960018111156118e9576118e9612639565b60018111156118fa576118fa612639565b815260208082019290925260409081015f908120805460018181018355918352848320018590556001600160401b038d1682526006909352908120918a9081111561194757611947612639565b600181111561195857611958612639565b81526020019081526020015f205f8281526020019081526020015f205483611980919061276a565b92505060010161173a565b5081546002830184905560048301829055600160d81b82150261ffff60d01b1990911617600360d01b1782558560018111156119c9576119c9612639565b876001600160401b03167fa67f81a1da4023692c41121888d679213633aa96d5a3cc90f7395de2b2eff68c878787604051611a069392919061277d565b60405180910390a350505050505050565b5f546001600160a01b031633146105f25760405163118cdaa760e01b8152336004820152602401610c13565b611a4b6120ed565b6001805460ff60a01b191690557f5db9ee0a495bf2e6ff9c91a7834c1ba4fdd244a5e8aa4e537bd38aeae4b073aa335b6040516001600160a01b03909116815260200160405180910390a1565b600180546001600160a01b0319169055610c2581612117565b611ab9612166565b60025f805160206127cd83398151915255565b600154600160a01b900460ff16156105f25760405163d93c066560e01b815260040160405180910390fd5b612710821015611b1a5760405163162908e360e11b815260040160405180910390fd5b6001600160401b0385165f90815260046020526040812090856001811115611b4457611b44612639565b6001811115611b5557611b55612639565b815260208082019290925260409081015f90812086825290925290205460ff16611b925760405163e66ea08f60e01b815260040160405180910390fd5b6001600160401b0385165f90815260036020526040812081866001811115611bbc57611bbc612639565b6001811115611bcd57611bcd612639565b815260208101919091526040015f20805490915060ff600160d01b90910416600114611c0c5760405163baf3f0f760e01b815260040160405180910390fd5b80546001600160401b0316421080611c3557508054600160401b90046001600160401b03164210155b15611c535760405163baf3f0f760e01b815260040160405180910390fd5b6001600160401b0386165f9081526007602052604081208491876001811115611c7e57611c7e612639565b6001811115611c8f57611c8f612639565b815260208082019290925260409081015f9081206001600160a01b0387168252835281812088825290925281208054909190611ccc90849061276a565b90915550506001600160401b0386165f9081526008602052604081208491876001811115611cfc57611cfc612639565b6001811115611d0d57611d0d612639565b81526020019081526020015f205f846001600160a01b03166001600160a01b031681526020019081526020015f205f828254611d49919061276a565b90915550506001600160401b0386165f9081526006602052604081208491876001811115611d7957611d79612639565b6001811115611d8a57611d8a612639565b81526020019081526020015f205f8681526020019081526020015f205f828254611db4919061276a565b9250508190555082816003015f828254611dce919061276a565b90915550611e0990506001600160a01b037f000000000000000000000000000000000000000000000000000000000000000016833086612195565b816001600160a01b0316856001811115611e2557611e25612639565b60408051878152602081018790526001600160401b038a16917f1c6b4a5ce930ee93d9456c68f1139238d04936108b1c23e650a12a696e8dc747910160405180910390a4505050505050565b611e79611acc565b6001805460ff60a01b1916600160a01b1790557f62e78cea01bee320cd4e420270b5ea74000d11b0c9f74754ebdbfc544b05a258611a7b3390565b80545f90600160d81b900460ff1615611f38576001600160401b0384165f90815260086020526040812090846001811115611ef157611ef1612639565b6001811115611f0257611f02612639565b81526020019081526020015f205f866001600160a01b03166001600160a01b031681526020019081526020015f205490506120ab565b6001600160401b0384165f908152600960205260408120819081866001811115611f6457611f64612639565b6001811115611f7557611f75612639565b81526020019081526020015f2090505f5b8154811015612037576001600160401b0387165f90815260076020526040812090876001811115611fb957611fb9612639565b6001811115611fca57611fca612639565b81526020019081526020015f205f896001600160a01b03166001600160a01b031681526020019081526020015f205f83838154811061200b5761200b6126ec565b905f5260205f20015481526020019081526020015f20548361202d919061276a565b9250600101611f86565b50815f03612049575f925050506120ab565b835460038501545f916127109161206b91600160c01b900461ffff1690612734565b612075919061274b565b90505f81866003015461208891906127b9565b600487015490915061209a8583612734565b6120a4919061274b565b9450505050505b949350505050565b6120c083838360016121cb565b6120e857604051635274afe760e01b81526001600160a01b0384166004820152602401610c13565b505050565b600154600160a01b900460ff166105f257604051638dfc202b60e01b815260040160405180910390fd5b5f80546001600160a01b038381166001600160a01b0319831681178455604051919092169283917f8be0079c531659141344cd1fd0a4f28419497f9722a3daafe3b4186f6b6457e09190a35050565b5f805160206127cd833981519152546002036105f257604051633ee5aeb560e01b815260040160405180910390fd5b6121a384848484600161222d565b610ecd57604051635274afe760e01b81526001600160a01b0385166004820152602401610c13565b60405163a9059cbb60e01b5f8181526001600160a01b038616600452602485905291602083604481808b5af1925060015f51148316612221578383151615612215573d5f823e3d81fd5b5f873b113d1516831692505b60405250949350505050565b6040516323b872dd60e01b5f8181526001600160a01b038781166004528616602452604485905291602083606481808c5af1925060015f5114831661228957838315161561227d573d5f823e3d81fd5b5f883b113d1516831692505b604052505f60605295945050505050565b80356001600160401b03811681146122b0575f80fd5b919050565b8035600281106122b0575f80fd5b80356001600160a01b03811681146122b0575f80fd5b5f805f606084860312156122eb575f80fd5b6122f48461229a565b9250612302602085016122b5565b9150612310604085016122c3565b90509250925092565b5f806040838503121561232a575f80fd5b6123338361229a565b9150612341602084016122b5565b90509250929050565b5f805f6060848603121561235c575f80fd5b6123658461229a565b9250612373602085016122b5565b9150604084013590509250925092565b5f60208284031215612393575f80fd5b81356001600160401b038111156123a8575f80fd5b82016101008185031215610fbc575f80fd5b5f805f805f8587036101208112156123d0575f80fd5b6123d98761229a565b95506123e7602088016122b5565b9450604087013593506060870135925060a0607f1982011215612408575f80fd5b506080860190509295509295909350565b5f805f806080858703121561242c575f80fd5b6124358561229a565b9350612443602086016122b5565b9250612451604086016122c3565b9396929550929360600135925050565b81516001600160401b031681526101408101602083015161248d60208401826001600160401b03169052565b5060408301516124a860408401826001600160401b03169052565b5060608301516124be606084018261ffff169052565b5060808301516124d3608084018260ff169052565b5060a08301516124e760a084018215159052565b5060c083015160c083015260e083015160e083015261010080840151818401525061012080840151818401525092915050565b5f805f806080858703121561252d575f80fd5b6125368561229a565b9350612544602086016122b5565b93969395505050506040820135916060013590565b5f805f6060848603121561256b575f80fd5b612574846122c3565b92506125826020850161229a565b9150612310604085016122b5565b5f602082840312156125a0575f80fd5b610fbc826122c3565b5f805f805f608086880312156125bd575f80fd5b6125c68661229a565b94506125d4602087016122b5565b935060408601356001600160401b03808211156125ef575f80fd5b818801915088601f830112612602575f80fd5b813581811115612610575f80fd5b8960208260051b8501011115612624575f80fd5b96999598505060200195606001359392505050565b634e487b7160e01b5f52602160045260245ffd5b5f6020828403121561265d575f80fd5b813561ffff81168114610fbc575f80fd5b5f808335601e19843603018112612683575f80fd5b8301803591506001600160401b0382111561269c575f80fd5b6020019150600581901b36038213156126b3575f80fd5b9250929050565b5f602082840312156126ca575f80fd5b610fbc8261229a565b5f602082840312156126e3575f80fd5b610fbc826122b5565b634e487b7160e01b5f52603260045260245ffd5b5f60208284031215612710575f80fd5b813560ff81168114610fbc575f80fd5b634e487b7160e01b5f52601160045260245ffd5b80820281158282048414176105dc576105dc612720565b5f8261276557634e487b7160e01b5f52601260045260245ffd5b500490565b808201808211156105dc576105dc612720565b604080825281018390525f6001600160fb1b0384111561279b575f80fd5b8360051b808660608501376020830193909352500160600192915050565b818103818111156105dc576105dc61272056fe9b779b17422d0df92223018b32b4d1fa46e071723d6817e2486d003becc55f00a2646970667358221220a637ed585fa315c8c3cc88513863d17a6087ddc7e398c9cf134640e4c7613f9564736f6c63430008180033","linkReferences":{}},"methodIdentifiers":{"MAX_CANDIDATES()":"f0786096","MAX_FEE_BPS()":"d55be8c6","MIN_CANDIDATES()":"9d9eab88","MIN_STAKE()":"cb1c2b5c","acceptOwnership()":"79ba5097","candidateList(uint64,uint8,uint256)":"ec9639ee","claimWinnings(uint64,uint8)":"f30a3ed1","claimable(address,uint64,uint8)":"cc014e88","claimed(uint64,uint8,address)":"78bdc9bd","collectFee(uint64,uint8)":"fdeb634e","feeCollected(uint64,uint8)":"e808355a","feeRecipient()":"46904840","isCandidate(uint64,uint8,bytes32)":"69e1eb09","isWinner(uint64,uint8,bytes32)":"8fbcd5b4","lockMarket(uint64,uint8)":"f4b04f3a","marketDetails(uint64,uint8)":"843ea961","marketState(uint64,uint8)":"218b106d","openMarket((uint64,uint8,uint64,uint64,uint64,uint16,bytes32[],bytes32))":"6bdb340d","owner()":"8da5cb5b","pause()":"8456cb59","paused()":"5c975abb","pendingOwner()":"e30c3978","poolByCandidate(uint64,uint8,bytes32)":"cfe8a156","predict(uint64,uint8,bytes32,uint256)":"ae9ea93a","predictWithPermit(uint64,uint8,bytes32,uint256,(uint256,uint256,uint8,bytes32,bytes32))":"7e878243","renounceOwnership()":"715018a6","resolveMarket(uint64,uint8,bytes32[],bytes32)":"ffa91eb2","setFeeRecipient(address)":"e74b981b","transferOwnership(address)":"f2fde38b","unpause()":"3f4ba83a","usdc()":"3e413bee","userStakeByCandidate(uint64,uint8,address,bytes32)":"80bdec4f","userTotalStake(uint64,uint8,address)":"180cc01f","winnerList(uint64,uint8,uint256)":"d2bdba1b"},"id":29}