{"abi":[{"type":"constructor","inputs":[{"name":"usdc_","type":"address","internalType":"address"},{"name":"owner_","type":"address","internalType":"address"},{"name":"feeRecipient_","type":"address","internalType":"address"}],"stateMutability":"nonpayable"},{"type":"function","name":"MAX_FEE_BPS","inputs":[],"outputs":[{"name":"","type":"uint16","internalType":"uint16"}],"stateMutability":"view"},{"type":"function","name":"acceptOwnership","inputs":[],"outputs":[],"stateMutability":"nonpayable"},{"type":"function","name":"candidateList","inputs":[{"name":"","type":"uint64","internalType":"uint64"},{"name":"","type":"uint8","internalType":"enum IBaseRankMarket.MarketType"},{"name":"","type":"uint256","internalType":"uint256"}],"outputs":[{"name":"","type":"bytes32","internalType":"bytes32"}],"stateMutability":"view"},{"type":"function","name":"claimWinnings","inputs":[{"name":"epochId","type":"uint64","internalType":"uint64"},{"name":"marketType","type":"uint8","internalType":"enum IBaseRankMarket.MarketType"}],"outputs":[{"name":"amount","type":"uint256","internalType":"uint256"}],"stateMutability":"nonpayable"},{"type":"function","name":"claimable","inputs":[{"name":"user","type":"address","internalType":"address"},{"name":"epochId","type":"uint64","internalType":"uint64"},{"name":"marketType","type":"uint8","internalType":"enum IBaseRankMarket.MarketType"}],"outputs":[{"name":"amount","type":"uint256","internalType":"uint256"}],"stateMutability":"view"},{"type":"function","name":"claimed","inputs":[{"name":"","type":"uint64","internalType":"uint64"},{"name":"","type":"uint8","internalType":"enum IBaseRankMarket.MarketType"},{"name":"","type":"address","internalType":"address"}],"outputs":[{"name":"","type":"bool","internalType":"bool"}],"stateMutability":"view"},{"type":"function","name":"collectFee","inputs":[{"name":"epochId","type":"uint64","internalType":"uint64"},{"name":"marketType","type":"uint8","internalType":"enum IBaseRankMarket.MarketType"}],"outputs":[{"name":"feeAmount","type":"uint256","internalType":"uint256"}],"stateMutability":"nonpayable"},{"type":"function","name":"feeCollected","inputs":[{"name":"","type":"uint64","internalType":"uint64"},{"name":"","type":"uint8","internalType":"enum IBaseRankMarket.MarketType"}],"outputs":[{"name":"","type":"bool","internalType":"bool"}],"stateMutability":"view"},{"type":"function","name":"feeRecipient","inputs":[],"outputs":[{"name":"","type":"address","internalType":"address"}],"stateMutability":"view"},{"type":"function","name":"isCandidate","inputs":[{"name":"","type":"uint64","internalType":"uint64"},{"name":"","type":"uint8","internalType":"enum IBaseRankMarket.MarketType"},{"name":"","type":"bytes32","internalType":"bytes32"}],"outputs":[{"name":"","type":"bool","internalType":"bool"}],"stateMutability":"view"},{"type":"function","name":"isWinner","inputs":[{"name":"","type":"uint64","internalType":"uint64"},{"name":"","type":"uint8","internalType":"enum IBaseRankMarket.MarketType"},{"name":"","type":"bytes32","internalType":"bytes32"}],"outputs":[{"name":"","type":"bool","internalType":"bool"}],"stateMutability":"view"},{"type":"function","name":"lockMarket","inputs":[{"name":"epochId","type":"uint64","internalType":"uint64"},{"name":"marketType","type":"uint8","internalType":"enum IBaseRankMarket.MarketType"}],"outputs":[],"stateMutability":"nonpayable"},{"type":"function","name":"marketDetails","inputs":[{"name":"epochId","type":"uint64","internalType":"uint64"},{"name":"marketType","type":"uint8","internalType":"enum IBaseRankMarket.MarketType"}],"outputs":[{"name":"","type":"tuple","internalType":"struct BaseRankMarket.Market","components":[{"name":"openTime","type":"uint64","internalType":"uint64"},{"name":"lockTime","type":"uint64","internalType":"uint64"},{"name":"resolveTime","type":"uint64","internalType":"uint64"},{"name":"feeBps","type":"uint16","internalType":"uint16"},{"name":"state","type":"uint8","internalType":"uint8"},{"name":"metadataHash","type":"bytes32","internalType":"bytes32"},{"name":"snapshotHash","type":"bytes32","internalType":"bytes32"},{"name":"totalPool","type":"uint256","internalType":"uint256"},{"name":"totalWinningPool","type":"uint256","internalType":"uint256"}]}],"stateMutability":"view"},{"type":"function","name":"marketState","inputs":[{"name":"epochId","type":"uint64","internalType":"uint64"},{"name":"marketType","type":"uint8","internalType":"enum IBaseRankMarket.MarketType"}],"outputs":[{"name":"","type":"uint8","internalType":"uint8"}],"stateMutability":"view"},{"type":"function","name":"openMarket","inputs":[{"name":"config","type":"tuple","internalType":"struct IBaseRankMarket.MarketConfig","components":[{"name":"epochId","type":"uint64","internalType":"uint64"},{"name":"marketType","type":"uint8","internalType":"enum IBaseRankMarket.MarketType"},{"name":"openTime","type":"uint64","internalType":"uint64"},{"name":"lockTime","type":"uint64","internalType":"uint64"},{"name":"resolveTime","type":"uint64","internalType":"uint64"},{"name":"feeBps","type":"uint16","internalType":"uint16"},{"name":"candidateIds","type":"bytes32[]","internalType":"bytes32[]"},{"name":"metadataHash","type":"bytes32","internalType":"bytes32"}]}],"outputs":[],"stateMutability":"nonpayable"},{"type":"function","name":"owner","inputs":[],"outputs":[{"name":"","type":"address","internalType":"address"}],"stateMutability":"view"},{"type":"function","name":"pause","inputs":[],"outputs":[],"stateMutability":"nonpayable"},{"type":"function","name":"paused","inputs":[],"outputs":[{"name":"","type":"bool","internalType":"bool"}],"stateMutability":"view"},{"type":"function","name":"pendingOwner","inputs":[],"outputs":[{"name":"","type":"address","internalType":"address"}],"stateMutability":"view"},{"type":"function","name":"poolByCandidate","inputs":[{"name":"","type":"uint64","internalType":"uint64"},{"name":"","type":"uint8","internalType":"enum IBaseRankMarket.MarketType"},{"name":"","type":"bytes32","internalType":"bytes32"}],"outputs":[{"name":"","type":"uint256","internalType":"uint256"}],"stateMutability":"view"},{"type":"function","name":"predict","inputs":[{"name":"epochId","type":"uint64","internalType":"uint64"},{"name":"marketType","type":"uint8","internalType":"enum IBaseRankMarket.MarketType"},{"name":"candidateId","type":"bytes32","internalType":"bytes32"},{"name":"amount","type":"uint256","internalType":"uint256"}],"outputs":[],"stateMutability":"nonpayable"},{"type":"function","name":"predictWithPermit","inputs":[{"name":"epochId","type":"uint64","internalType":"uint64"},{"name":"marketType","type":"uint8","internalType":"enum IBaseRankMarket.MarketType"},{"name":"candidateId","type":"bytes32","internalType":"bytes32"},{"name":"amount","type":"uint256","internalType":"uint256"},{"name":"permit","type":"tuple","internalType":"struct IBaseRankMarket.PermitParams","components":[{"name":"value","type":"uint256","internalType":"uint256"},{"name":"deadline","type":"uint256","internalType":"uint256"},{"name":"v","type":"uint8","internalType":"uint8"},{"name":"r","type":"bytes32","internalType":"bytes32"},{"name":"s","type":"bytes32","internalType":"bytes32"}]}],"outputs":[],"stateMutability":"nonpayable"},{"type":"function","name":"renounceOwnership","inputs":[],"outputs":[],"stateMutability":"nonpayable"},{"type":"function","name":"resolveMarket","inputs":[{"name":"epochId","type":"uint64","internalType":"uint64"},{"name":"marketType","type":"uint8","internalType":"enum IBaseRankMarket.MarketType"},{"name":"winnerIds","type":"bytes32[]","internalType":"bytes32[]"},{"name":"snapshotHash","type":"bytes32","internalType":"bytes32"}],"outputs":[],"stateMutability":"nonpayable"},{"type":"function","name":"setFeeRecipient","inputs":[{"name":"newFeeRecipient","type":"address","internalType":"address"}],"outputs":[],"stateMutability":"nonpayable"},{"type":"function","name":"transferOwnership","inputs":[{"name":"newOwner","type":"address","internalType":"address"}],"outputs":[],"stateMutability":"nonpayable"},{"type":"function","name":"unpause","inputs":[],"outputs":[],"stateMutability":"nonpayable"},{"type":"function","name":"usdc","inputs":[],"outputs":[{"name":"","type":"address","internalType":"contract IERC20"}],"stateMutability":"view"},{"type":"function","name":"userStakeByCandidate","inputs":[{"name":"","type":"uint64","internalType":"uint64"},{"name":"","type":"uint8","internalType":"enum IBaseRankMarket.MarketType"},{"name":"","type":"address","internalType":"address"},{"name":"","type":"bytes32","internalType":"bytes32"}],"outputs":[{"name":"","type":"uint256","internalType":"uint256"}],"stateMutability":"view"},{"type":"function","name":"winnerList","inputs":[{"name":"","type":"uint64","internalType":"uint64"},{"name":"","type":"uint8","internalType":"enum IBaseRankMarket.MarketType"},{"name":"","type":"uint256","internalType":"uint256"}],"outputs":[{"name":"","type":"bytes32","internalType":"bytes32"}],"stateMutability":"view"},{"type":"event","name":"FeeCollected","inputs":[{"name":"epochId","type":"uint64","indexed":true,"internalType":"uint64"},{"name":"marketType","type":"uint8","indexed":true,"internalType":"enum IBaseRankMarket.MarketType"},{"name":"feeAmount","type":"uint256","indexed":false,"internalType":"uint256"},{"name":"recipient","type":"address","indexed":true,"internalType":"address"}],"anonymous":false},{"type":"event","name":"FeeRecipientUpdated","inputs":[{"name":"newRecipient","type":"address","indexed":true,"internalType":"address"}],"anonymous":false},{"type":"event","name":"MarketLocked","inputs":[{"name":"epochId","type":"uint64","indexed":true,"internalType":"uint64"},{"name":"marketType","type":"uint8","indexed":true,"internalType":"enum IBaseRankMarket.MarketType"}],"anonymous":false},{"type":"event","name":"MarketOpened","inputs":[{"name":"epochId","type":"uint64","indexed":true,"internalType":"uint64"},{"name":"marketType","type":"uint8","indexed":true,"internalType":"enum IBaseRankMarket.MarketType"},{"name":"lockTime","type":"uint64","indexed":false,"internalType":"uint64"},{"name":"resolveTime","type":"uint64","indexed":false,"internalType":"uint64"}],"anonymous":false},{"type":"event","name":"MarketResolved","inputs":[{"name":"epochId","type":"uint64","indexed":true,"internalType":"uint64"},{"name":"marketType","type":"uint8","indexed":true,"internalType":"enum IBaseRankMarket.MarketType"},{"name":"winners","type":"bytes32[]","indexed":false,"internalType":"bytes32[]"},{"name":"snapshotHash","type":"bytes32","indexed":false,"internalType":"bytes32"}],"anonymous":false},{"type":"event","name":"OwnershipTransferStarted","inputs":[{"name":"previousOwner","type":"address","indexed":true,"internalType":"address"},{"name":"newOwner","type":"address","indexed":true,"internalType":"address"}],"anonymous":false},{"type":"event","name":"OwnershipTransferred","inputs":[{"name":"previousOwner","type":"address","indexed":true,"internalType":"address"},{"name":"newOwner","type":"address","indexed":true,"internalType":"address"}],"anonymous":false},{"type":"event","name":"Paused","inputs":[{"name":"account","type":"address","indexed":false,"internalType":"address"}],"anonymous":false},{"type":"event","name":"Predicted","inputs":[{"name":"epochId","type":"uint64","indexed":true,"internalType":"uint64"},{"name":"marketType","type":"uint8","indexed":true,"internalType":"enum IBaseRankMarket.MarketType"},{"name":"user","type":"address","indexed":true,"internalType":"address"},{"name":"candidateId","type":"bytes32","indexed":false,"internalType":"bytes32"},{"name":"amount","type":"uint256","indexed":false,"internalType":"uint256"}],"anonymous":false},{"type":"event","name":"Unpaused","inputs":[{"name":"account","type":"address","indexed":false,"internalType":"address"}],"anonymous":false},{"type":"event","name":"WinningsClaimed","inputs":[{"name":"epochId","type":"uint64","indexed":true,"internalType":"uint64"},{"name":"marketType","type":"uint8","indexed":true,"internalType":"enum IBaseRankMarket.MarketType"},{"name":"user","type":"address","indexed":true,"internalType":"address"},{"name":"amount","type":"uint256","indexed":false,"internalType":"uint256"}],"anonymous":false},{"type":"error","name":"AlreadyClaimed","inputs":[]},{"type":"error","name":"DuplicateCandidate","inputs":[]},{"type":"error","name":"DuplicateWinner","inputs":[]},{"type":"error","name":"EnforcedPause","inputs":[]},{"type":"error","name":"ExpectedPause","inputs":[]},{"type":"error","name":"FeeAlreadyCollected","inputs":[]},{"type":"error","name":"InvalidAddress","inputs":[]},{"type":"error","name":"InvalidAmount","inputs":[]},{"type":"error","name":"InvalidCandidate","inputs":[]},{"type":"error","name":"InvalidConfig","inputs":[]},{"type":"error","name":"InvalidState","inputs":[]},{"type":"error","name":"NoWinners","inputs":[]},{"type":"error","name":"OwnableInvalidOwner","inputs":[{"name":"owner","type":"address","internalType":"address"}]},{"type":"error","name":"OwnableUnauthorizedAccount","inputs":[{"name":"account","type":"address","internalType":"address"}]},{"type":"error","name":"ReentrancyGuardReentrantCall","inputs":[]},{"type":"error","name":"SafeERC20FailedOperation","inputs":[{"name":"token","type":"address","internalType":"address"}]}],"bytecode":{"object":"0x60a060405234801562000010575f80fd5b506040516200275c3803806200275c833981016040819052620000339162000196565b816001600160a01b0381166200006257604051631e4fbdf760e01b81525f600482015260240160405180910390fd5b6200006d816200010d565b5060017f9b779b17422d0df92223018b32b4d1fa46e071723d6817e2486d003becc55f00556001600160a01b0383161580620000b057506001600160a01b038216155b80620000c357506001600160a01b038116155b15620000e25760405163e6c4247b60e01b815260040160405180910390fd5b6001600160a01b03928316608052600280546001600160a01b031916919093161790915550620001dd565b600180546001600160a01b031916905562000128816200012b565b50565b5f80546001600160a01b038381166001600160a01b0319831681178455604051919092169283917f8be0079c531659141344cd1fd0a4f28419497f9722a3daafe3b4186f6b6457e09190a35050565b80516001600160a01b038116811462000191575f80fd5b919050565b5f805f60608486031215620001a9575f80fd5b620001b4846200017a565b9250620001c4602085016200017a565b9150620001d4604085016200017a565b90509250925092565b60805161254a620002125f395f818161020401528181610b4101528181611151015281816114570152611bba015261254a5ff3fe608060405234801561000f575f80fd5b50600436106101d1575f3560e01c80638fbcd5b4116100fe578063e74b981b1161009e578063f30a3ed11161006e578063f30a3ed1146104c3578063f4b04f3a146104d6578063fdeb634e146104e9578063ffa91eb2146104fc575f80fd5b8063e74b981b1461045d578063e808355a14610470578063ec9639ee1461049d578063f2fde38b146104b0575f80fd5b8063cfe8a156116100d9578063cfe8a156146103ed578063d2bdba1b1461041d578063d55be8c614610430578063e30c39781461044c575f80fd5b80638fbcd5b414610394578063ae9ea93a146103c7578063cc014e88146103da575f80fd5b8063715018a61161017457806380bdec4f1161014457806380bdec4f14610315578063843ea9611461035c5780638456cb591461037c5780638da5cb5b14610384575f80fd5b8063715018a6146102bf57806378bdc9bd146102c757806379ba5097146102fa5780637e87824314610302575f80fd5b806346904840116101af57806346904840146102485780635c975abb1461025b57806369e1eb09146102795780636bdb340d146102ac575f80fd5b8063218b106d146101d55780633e413bee146101ff5780633f4ba83a1461023e575b5f80fd5b6101e86101e336600461201a565b61050f565b60405160ff90911681526020015b60405180910390f35b6102267f000000000000000000000000000000000000000000000000000000000000000081565b6040516001600160a01b0390911681526020016101f6565b61024661056d565b005b600254610226906001600160a01b031681565b600154600160a01b900460ff165b60405190151581526020016101f6565b61026961028736600461204b565b600460209081525f938452604080852082529284528284209052825290205460ff1681565b6102466102ba366004612084565b61057f565b610246610acd565b6102696102d53660046120d1565b600a60209081525f938452604080852082529284528284209052825290205460ff1681565b610246610ade565b610246610310366004612111565b610b27565b61034e610323366004612170565b600760209081525f948552604080862082529385528385208152918452828420909152825290205481565b6040519081526020016101f6565b61036f61036a36600461201a565b610c2f565b6040516101f691906121b8565b610246610d4b565b5f546001600160a01b0316610226565b6102696103a236600461204b565b600960209081525f938452604080852082529284528284209052825290205460ff1681565b6102466103d5366004612242565b610d5b565b61034e6103e8366004612281565b610d94565b61034e6103fb36600461204b565b600660209081525f938452604080852082529284528284209052825290205481565b61034e61042b36600461204b565b610e84565b6104396101f481565b60405161ffff90911681526020016101f6565b6001546001600160a01b0316610226565b61024661046b3660046122b8565b610eba565b61026961047e36600461201a565b600b60209081525f928352604080842090915290825290205460ff1681565b61034e6104ab36600461204b565b610f32565b6102466104be3660046122b8565b610f55565b61034e6104d136600461201a565b610fc5565b6102466104e436600461201a565b6111e5565b61034e6104f736600461201a565b6112c2565b61024661050a3660046122d1565b6114d9565b6001600160401b0382165f9081526003602052604081208183600181111561053957610539612361565b600181111561054a5761054a612361565b815260208101919091526040015f2054600160d01b900460ff1690505b92915050565b610575611870565b61057d61189c565b565b610587611870565b6101f461059a60c0830160a08401612375565b61ffff1611156105bd576040516306b7c75960e31b815260040160405180910390fd5b6105ca60c0820182612396565b90505f036105eb576040516306b7c75960e31b815260040160405180910390fd5b6105fb60808201606083016123e2565b6001600160401b031661061460608301604084016123e2565b6001600160401b0316108015610659575061063560a08201608083016123e2565b6001600160401b031661064e60808301606084016123e2565b6001600160401b0316105b610676576040516306b7c75960e31b815260040160405180910390fd5b5f60038161068760208501856123e2565b6001600160401b03166001600160401b031681526020019081526020015f205f8360200160208101906106ba91906123fb565b60018111156106cb576106cb612361565b60018111156106dc576106dc612361565b815260208101919091526040015f208054909150600160d01b900460ff16156107185760405163baf3f0f760e01b815260040160405180910390fd5b61072860608301604084016123e2565b815467ffffffffffffffff19166001600160401b039190911617815561075460808301606084016123e2565b81546001600160401b0391909116600160401b026fffffffffffffffff00000000000000001990911617815561079060a08301608084016123e2565b81546001600160401b0391909116600160801b0267ffffffffffffffff60801b199091161781556107c760c0830160a08401612375565b8154600160d01b62ffffff60c01b1990911661ffff92909216600160c01b0260ff60d01b19169190911717815560e082013560018201555f61080c60c0840184612396565b905090505f5b81811015610a2c575f61082860c0860186612396565b8381811061083857610838612414565b602002919091013591508190506108625760405163e66ea08f60e01b815260040160405180910390fd5b60045f61087260208801886123e2565b6001600160401b03166001600160401b031681526020019081526020015f205f8660200160208101906108a591906123fb565b60018111156108b6576108b6612361565b60018111156108c7576108c7612361565b815260208082019290925260409081015f90812084825290925290205460ff161561090557604051638c2bd5a760e01b815260040160405180910390fd5b600160045f61091760208901896123e2565b6001600160401b03166001600160401b031681526020019081526020015f205f87602001602081019061094a91906123fb565b600181111561095b5761095b612361565b600181111561096c5761096c612361565b815260208082019290925260409081015f9081208582528352908120805460ff191693151593909317909255600591906109a8908801886123e2565b6001600160401b03166001600160401b031681526020019081526020015f205f8660200160208101906109db91906123fb565b60018111156109ec576109ec612361565b60018111156109fd576109fd612361565b81526020808201929092526040015f908120805460018181018355918352929091209091019190915501610812565b50610a3d60408401602085016123fb565b6001811115610a4e57610a4e612361565b610a5b60208501856123e2565b6001600160401b03167ffe69b43894edabddca8a8478e7ec23b4d15f3e9708888a0e0dc3b3c32dab198a610a9560808701606088016123e2565b610aa560a08801608089016123e2565b604080516001600160401b0393841681529290911660208301520160405180910390a3505050565b610ad5611870565b61057d5f6118f1565b60015433906001600160a01b03168114610b1b5760405163118cdaa760e01b81526001600160a01b03821660048201526024015b60405180910390fd5b610b24816118f1565b50565b610b2f61190a565b610b37611925565b6001600160a01b037f00000000000000000000000000000000000000000000000000000000000000001663d505accf333084356020860135610b7f6060880160408901612428565b6040516001600160e01b031960e088901b1681526001600160a01b0395861660048201529490931660248501526044840191909152606483015260ff166084820152606084013560a4820152608084013560c482015260e4015f604051808303815f87803b158015610bef575f80fd5b505af1158015610c01573d5f803e3d5ffd5b50505050610c128585858533611950565b610c2860015f805160206124f583398151915255565b5050505050565b60408051610120810182525f8082526020808301829052828401829052606083018290526080830182905260a0830182905260c0830182905260e0830182905261010083018290526001600160401b0386168252600390529182209091836001811115610c9e57610c9e612361565b6001811115610caf57610caf612361565b815260208082019290925260409081015f2081516101208101835281546001600160401b038082168352600160401b8204811695830195909552600160801b810490941692810192909252600160c01b830461ffff166060830152600160d01b90920460ff166080820152600182015460a0820152600282015460c0820152600382015460e08201526004909101546101008201529392505050565b610d53611870565b61057d611c4a565b610d6361190a565b610d6b611925565b610d788484848433611950565b610d8e60015f805160206124f583398151915255565b50505050565b6001600160401b0382165f908152600360205260408120819081846001811115610dc057610dc0612361565b6001811115610dd157610dd1612361565b815260208101919091526040015f20805490915060ff600160d01b909104166003141580610e5f57506001600160401b0384165f908152600a6020526040812090846001811115610e2457610e24612361565b6001811115610e3557610e35612361565b815260208082019290925260409081015f9081206001600160a01b038916825290925290205460ff165b15610e6d575f915050610e7d565b610e7985858584611c8d565b9150505b9392505050565b6008602052825f5260405f20602052815f5260405f208181548110610ea7575f80fd5b905f5260205f20015f9250925050505481565b610ec2611870565b6001600160a01b038116610ee95760405163e6c4247b60e01b815260040160405180910390fd5b600280546001600160a01b0319166001600160a01b0383169081179091556040517f7a7b5a0a132f9e0581eb8527f66eae9ee89c2a3e79d4ac7e41a1f1f4d48a7fc2905f90a250565b6005602052825f5260405f20602052815f5260405f208181548110610ea7575f80fd5b610f5d611870565b600180546001600160a01b0383166001600160a01b03199091168117909155610f8d5f546001600160a01b031690565b6001600160a01b03167f38d16b8cac22d99fc7c124b9cd0de2d3fa1faef420bfe791d8c362d765e2270060405160405180910390a350565b5f610fce61190a565b610fd6611925565b6001600160401b0383165f9081526003602052604081208184600181111561100057611000612361565b600181111561101157611011612361565b815260208101919091526040015f20805490915060ff600160d01b909104166003146110505760405163baf3f0f760e01b815260040160405180910390fd5b6001600160401b0384165f908152600a602052604081209084600181111561107a5761107a612361565b600181111561108b5761108b612361565b815260208082019290925260409081015f90812033825290925290205460ff16156110c957604051630c8d9eab60e31b815260040160405180910390fd5b6001600160401b0384165f908152600a6020526040812060019185838111156110f4576110f4612361565b600181111561110557611105612361565b815260208082019290925260409081015f90812033808352935220805460ff19169215159290921790915561113c90858584611c8d565b91508115611178576111786001600160a01b037f0000000000000000000000000000000000000000000000000000000000000000163384611e0a565b3383600181111561118b5761118b612361565b856001600160401b03167f21ad8e7cece258fef20855bcd6eb5e86129747cc6c63d3e9c8c02e886310e8be856040516111c691815260200190565b60405180910390a45061056760015f805160206124f583398151915255565b6111ed611870565b6001600160401b0382165f9081526003602052604081208183600181111561121757611217612361565b600181111561122857611228612361565b815260208101919091526040015f20805490915060ff600160d01b909104166001146112675760405163baf3f0f760e01b815260040160405180910390fd5b805460ff60d01b1916600160d11b17815581600181111561128a5761128a612361565b6040516001600160401b038516907f5ee3f6f627236047cd03daa931b71ba8d091e465f5cf917baf669461e1ef1184905f90a3505050565b5f6112cb611870565b6112d361190a565b6001600160401b0383165f908152600360205260408120818460018111156112fd576112fd612361565b600181111561130e5761130e612361565b815260208101919091526040015f20805490915060ff600160d01b9091041660031461134d5760405163baf3f0f760e01b815260040160405180910390fd5b6001600160401b0384165f908152600b602052604081209084600181111561137757611377612361565b600181111561138857611388612361565b815260208101919091526040015f205460ff16156113b95760405163f2519cb960e01b815260040160405180910390fd5b6001600160401b0384165f908152600b6020526040812060019185838111156113e4576113e4612361565b60018111156113f5576113f5612361565b815260208101919091526040015f20805460ff1916911515919091179055805460038201546127109161143491600160c01b90910461ffff169061245c565b61143e9190612473565b9150811561148057600254611480906001600160a01b037f00000000000000000000000000000000000000000000000000000000000000008116911684611e0a565b6002546001600160a01b031683600181111561149e5761149e612361565b856001600160401b03167f45a9bf43daa97fdb039c214d13ac1b9db5add1f0a298c9c61b663ce14e1e1cff856040516111c691815260200190565b6114e1611870565b6001600160401b0385165f9081526003602052604081208186600181111561150b5761150b612361565b600181111561151c5761151c612361565b815260208101919091526040015f20805490915060ff600160d01b9091041660021461155b5760405163baf3f0f760e01b815260040160405180910390fd5b5f83900361157c57604051633728feb360e01b815260040160405180910390fd5b5f805b848110156117d0575f86868381811061159a5761159a612414565b90506020020135905060045f8a6001600160401b03166001600160401b031681526020019081526020015f205f8960018111156115d9576115d9612361565b60018111156115ea576115ea612361565b815260208082019290925260409081015f90812084825290925290205460ff166116275760405163e66ea08f60e01b815260040160405180910390fd5b6001600160401b0389165f9081526009602052604081209089600181111561165157611651612361565b600181111561166257611662612361565b815260208082019290925260409081015f90812084825290925290205460ff16156116a0576040516305a1e9cd60e11b815260040160405180910390fd5b6001600160401b0389165f9081526009602052604081206001918a838111156116cb576116cb612361565b60018111156116dc576116dc612361565b815260208082019290925260409081015f9081208582528352818120805460ff1916941515949094179093556001600160401b038c168352600890915281209089600181111561172e5761172e612361565b600181111561173f5761173f612361565b815260208082019290925260409081015f908120805460018181018355918352848320018590556001600160401b038d1682526006909352908120918a9081111561178c5761178c612361565b600181111561179d5761179d612361565b81526020019081526020015f205f8281526020019081526020015f2054836117c59190612492565b92505060010161157f565b50805f036117f157604051633728feb360e01b815260040160405180910390fd5b815460ff60d01b1916600360d01b178255600282018390556004820181905585600181111561182257611822612361565b876001600160401b03167fa67f81a1da4023692c41121888d679213633aa96d5a3cc90f7395de2b2eff68c87878760405161185f939291906124a5565b60405180910390a350505050505050565b5f546001600160a01b0316331461057d5760405163118cdaa760e01b8152336004820152602401610b12565b6118a4611e44565b6001805460ff60a01b191690557f5db9ee0a495bf2e6ff9c91a7834c1ba4fdd244a5e8aa4e537bd38aeae4b073aa335b6040516001600160a01b03909116815260200160405180910390a1565b600180546001600160a01b0319169055610b2481611e6e565b611912611ebd565b60025f805160206124f583398151915255565b600154600160a01b900460ff161561057d5760405163d93c066560e01b815260040160405180910390fd5b815f036119705760405163162908e360e11b815260040160405180910390fd5b6001600160401b0385165f9081526004602052604081209085600181111561199a5761199a612361565b60018111156119ab576119ab612361565b815260208082019290925260409081015f90812086825290925290205460ff166119e85760405163e66ea08f60e01b815260040160405180910390fd5b6001600160401b0385165f90815260036020526040812081866001811115611a1257611a12612361565b6001811115611a2357611a23612361565b815260208101919091526040015f20805490915060ff600160d01b90910416600114611a625760405163baf3f0f760e01b815260040160405180910390fd5b80546001600160401b0316421080611a8b57508054600160401b90046001600160401b03164210155b15611aa95760405163baf3f0f760e01b815260040160405180910390fd5b6001600160401b0386165f9081526007602052604081208491876001811115611ad457611ad4612361565b6001811115611ae557611ae5612361565b815260208082019290925260409081015f9081206001600160a01b0387168252835281812088825290925281208054909190611b22908490612492565b90915550506001600160401b0386165f9081526006602052604081208491876001811115611b5257611b52612361565b6001811115611b6357611b63612361565b81526020019081526020015f205f8681526020019081526020015f205f828254611b8d9190612492565b9250508190555082816003015f828254611ba79190612492565b90915550611be290506001600160a01b037f000000000000000000000000000000000000000000000000000000000000000016833086611eec565b816001600160a01b0316856001811115611bfe57611bfe612361565b60408051878152602081018790526001600160401b038a16917f1c6b4a5ce930ee93d9456c68f1139238d04936108b1c23e650a12a696e8dc747910160405180910390a4505050505050565b611c52611925565b6001805460ff60a01b1916600160a01b1790557f62e78cea01bee320cd4e420270b5ea74000d11b0c9f74754ebdbfc544b05a2586118d43390565b6001600160401b0383165f9081526008602052604081208190819081866001811115611cbb57611cbb612361565b6001811115611ccc57611ccc612361565b81526020019081526020015f2090505f5b8154811015611d8e576001600160401b0387165f90815260076020526040812090876001811115611d1057611d10612361565b6001811115611d2157611d21612361565b81526020019081526020015f205f896001600160a01b03166001600160a01b031681526020019081526020015f205f838381548110611d6257611d62612414565b905f5260205f20015481526020019081526020015f205483611d849190612492565b9250600101611cdd565b50815f03611da0575f92505050611e02565b835460038501545f9161271091611dc291600160c01b900461ffff169061245c565b611dcc9190612473565b90505f818660030154611ddf91906124e1565b6004870154909150611df1858361245c565b611dfb9190612473565b9450505050505b949350505050565b611e178383836001611f22565b611e3f57604051635274afe760e01b81526001600160a01b0384166004820152602401610b12565b505050565b600154600160a01b900460ff1661057d57604051638dfc202b60e01b815260040160405180910390fd5b5f80546001600160a01b038381166001600160a01b0319831681178455604051919092169283917f8be0079c531659141344cd1fd0a4f28419497f9722a3daafe3b4186f6b6457e09190a35050565b5f805160206124f58339815191525460020361057d57604051633ee5aeb560e01b815260040160405180910390fd5b611efa848484846001611f84565b610d8e57604051635274afe760e01b81526001600160a01b0385166004820152602401610b12565b60405163a9059cbb60e01b5f8181526001600160a01b038616600452602485905291602083604481808b5af1925060015f51148316611f78578383151615611f6c573d5f823e3d81fd5b5f873b113d1516831692505b60405250949350505050565b6040516323b872dd60e01b5f8181526001600160a01b038781166004528616602452604485905291602083606481808c5af1925060015f51148316611fe0578383151615611fd4573d5f823e3d81fd5b5f883b113d1516831692505b604052505f60605295945050505050565b80356001600160401b0381168114612007575f80fd5b919050565b803560028110612007575f80fd5b5f806040838503121561202b575f80fd5b61203483611ff1565b91506120426020840161200c565b90509250929050565b5f805f6060848603121561205d575f80fd5b61206684611ff1565b92506120746020850161200c565b9150604084013590509250925092565b5f60208284031215612094575f80fd5b81356001600160401b038111156120a9575f80fd5b82016101008185031215610e7d575f80fd5b80356001600160a01b0381168114612007575f80fd5b5f805f606084860312156120e3575f80fd5b6120ec84611ff1565b92506120fa6020850161200c565b9150612108604085016120bb565b90509250925092565b5f805f805f858703610120811215612127575f80fd5b61213087611ff1565b955061213e6020880161200c565b9450604087013593506060870135925060a0607f198201121561215f575f80fd5b506080860190509295509295909350565b5f805f8060808587031215612183575f80fd5b61218c85611ff1565b935061219a6020860161200c565b92506121a8604086016120bb565b9396929550929360600135925050565b81516001600160401b039081168252602080840151821690830152604080840151918216908301526101208201905060608301516121fc606084018261ffff169052565b506080830151612211608084018260ff169052565b5060a083015160a083015260c083015160c083015260e083015160e083015261010080840151818401525092915050565b5f805f8060808587031215612255575f80fd5b61225e85611ff1565b935061226c6020860161200c565b93969395505050506040820135916060013590565b5f805f60608486031215612293575f80fd5b61229c846120bb565b92506122aa60208501611ff1565b91506121086040850161200c565b5f602082840312156122c8575f80fd5b610e7d826120bb565b5f805f805f608086880312156122e5575f80fd5b6122ee86611ff1565b94506122fc6020870161200c565b935060408601356001600160401b0380821115612317575f80fd5b818801915088601f83011261232a575f80fd5b813581811115612338575f80fd5b8960208260051b850101111561234c575f80fd5b96999598505060200195606001359392505050565b634e487b7160e01b5f52602160045260245ffd5b5f60208284031215612385575f80fd5b813561ffff81168114610e7d575f80fd5b5f808335601e198436030181126123ab575f80fd5b8301803591506001600160401b038211156123c4575f80fd5b6020019150600581901b36038213156123db575f80fd5b9250929050565b5f602082840312156123f2575f80fd5b610e7d82611ff1565b5f6020828403121561240b575f80fd5b610e7d8261200c565b634e487b7160e01b5f52603260045260245ffd5b5f60208284031215612438575f80fd5b813560ff81168114610e7d575f80fd5b634e487b7160e01b5f52601160045260245ffd5b808202811582820484141761056757610567612448565b5f8261248d57634e487b7160e01b5f52601260045260245ffd5b500490565b8082018082111561056757610567612448565b604080825281018390525f6001600160fb1b038411156124c3575f80fd5b8360051b808660608501376020830193909352500160600192915050565b818103818111156105675761056761244856fe9b779b17422d0df92223018b32b4d1fa46e071723d6817e2486d003becc55f00a264697066735822122059f9fbc54c35e67b753bbb3c24bb8d61aa66b26decb82a72b147bdfdf5849ae664736f6c63430008180033","linkReferences":{}},"methodIdentifiers":{"MAX_FEE_BPS()":"d55be8c6","acceptOwnership()":"79ba5097","candidateList(uint64,uint8,uint256)":"ec9639ee","claimWinnings(uint64,uint8)":"f30a3ed1","claimable(address,uint64,uint8)":"cc014e88","claimed(uint64,uint8,address)":"78bdc9bd","collectFee(uint64,uint8)":"fdeb634e","feeCollected(uint64,uint8)":"e808355a","feeRecipient()":"46904840","isCandidate(uint64,uint8,bytes32)":"69e1eb09","isWinner(uint64,uint8,bytes32)":"8fbcd5b4","lockMarket(uint64,uint8)":"f4b04f3a","marketDetails(uint64,uint8)":"843ea961","marketState(uint64,uint8)":"218b106d","openMarket((uint64,uint8,uint64,uint64,uint64,uint16,bytes32[],bytes32))":"6bdb340d","owner()":"8da5cb5b","pause()":"8456cb59","paused()":"5c975abb","pendingOwner()":"e30c3978","poolByCandidate(uint64,uint8,bytes32)":"cfe8a156","predict(uint64,uint8,bytes32,uint256)":"ae9ea93a","predictWithPermit(uint64,uint8,bytes32,uint256,(uint256,uint256,uint8,bytes32,bytes32))":"7e878243","renounceOwnership()":"715018a6","resolveMarket(uint64,uint8,bytes32[],bytes32)":"ffa91eb2","setFeeRecipient(address)":"e74b981b","transferOwnership(address)":"f2fde38b","unpause()":"3f4ba83a","usdc()":"3e413bee","userStakeByCandidate(uint64,uint8,address,bytes32)":"80bdec4f","winnerList(uint64,uint8,uint256)":"d2bdba1b"},"id":48}